{
  "contractName": "CoinFlip",
  "abi": [
    {
      "inputs": [],
      "payable": true,
      "stateMutability": "payable",
      "type": "constructor"
    },
    {
      "anonymous": false,
      "inputs": [
        {
          "indexed": false,
          "internalType": "bytes32",
          "name": "betId",
          "type": "bytes32"
        },
        {
          "indexed": false,
          "internalType": "address",
          "name": "player",
          "type": "address"
        },
        {
          "indexed": false,
          "internalType": "uint256",
          "name": "choice",
          "type": "uint256"
        },
        {
          "indexed": false,
          "internalType": "bool",
          "name": "victory",
          "type": "bool"
        },
        {
          "indexed": false,
          "internalType": "uint256",
          "name": "amount",
          "type": "uint256"
        }
      ],
      "name": "ClosedBet",
      "type": "event"
    },
    {
      "anonymous": false,
      "inputs": [
        {
          "indexed": false,
          "internalType": "string",
          "name": "description",
          "type": "string"
        },
        {
          "indexed": false,
          "internalType": "address",
          "name": "sender",
          "type": "address"
        }
      ],
      "name": "LogNewProvableQuery",
      "type": "event"
    },
    {
      "anonymous": false,
      "inputs": [
        {
          "indexed": false,
          "internalType": "address",
          "name": "",
          "type": "address"
        },
        {
          "indexed": false,
          "internalType": "uint256",
          "name": "",
          "type": "uint256"
        }
      ],
      "name": "OccuredDeposit",
      "type": "event"
    },
    {
      "anonymous": false,
      "inputs": [
        {
          "indexed": false,
          "internalType": "address",
          "name": "player",
          "type": "address"
        },
        {
          "indexed": false,
          "internalType": "uint256",
          "name": "amount",
          "type": "uint256"
        },
        {
          "indexed": false,
          "internalType": "uint256",
          "name": "contractBalance",
          "type": "uint256"
        }
      ],
      "name": "WithdrawnFundsFromPlayer",
      "type": "event"
    },
    {
      "anonymous": false,
      "inputs": [
        {
          "indexed": false,
          "internalType": "uint256",
          "name": "randomNumber",
          "type": "uint256"
        }
      ],
      "name": "generateRandomNumber",
      "type": "event"
    },
    {
      "constant": true,
      "inputs": [],
      "name": "balance",
      "outputs": [
        {
          "internalType": "uint256",
          "name": "",
          "type": "uint256"
        }
      ],
      "payable": false,
      "stateMutability": "view",
      "type": "function"
    },
    {
      "constant": true,
      "inputs": [
        {
          "internalType": "address",
          "name": "",
          "type": "address"
        }
      ],
      "name": "betters",
      "outputs": [
        {
          "internalType": "uint256",
          "name": "balance",
          "type": "uint256"
        },
        {
          "internalType": "uint256",
          "name": "betAmount",
          "type": "uint256"
        },
        {
          "internalType": "uint256",
          "name": "betChoice",
          "type": "uint256"
        },
        {
          "internalType": "bool",
          "name": "isWaiting",
          "type": "bool"
        }
      ],
      "payable": false,
      "stateMutability": "view",
      "type": "function"
    },
    {
      "constant": true,
      "inputs": [],
      "name": "latetstNumber",
      "outputs": [
        {
          "internalType": "uint256",
          "name": "",
          "type": "uint256"
        }
      ],
      "payable": false,
      "stateMutability": "view",
      "type": "function"
    },
    {
      "constant": true,
      "inputs": [],
      "name": "minimumBetNumber",
      "outputs": [
        {
          "internalType": "uint256",
          "name": "",
          "type": "uint256"
        }
      ],
      "payable": false,
      "stateMutability": "view",
      "type": "function"
    },
    {
      "constant": true,
      "inputs": [
        {
          "internalType": "bytes32",
          "name": "",
          "type": "bytes32"
        }
      ],
      "name": "pendingBets",
      "outputs": [
        {
          "internalType": "address",
          "name": "",
          "type": "address"
        }
      ],
      "payable": false,
      "stateMutability": "view",
      "type": "function"
    },
    {
      "constant": true,
      "inputs": [],
      "name": "result",
      "outputs": [
        {
          "internalType": "bool",
          "name": "",
          "type": "bool"
        }
      ],
      "payable": false,
      "stateMutability": "view",
      "type": "function"
    },
    {
      "constant": false,
      "inputs": [
        {
          "internalType": "uint256",
          "name": "_choice",
          "type": "uint256"
        }
      ],
      "name": "bet",
      "outputs": [],
      "payable": true,
      "stateMutability": "payable",
      "type": "function"
    },
    {
      "constant": false,
      "inputs": [
        {
          "internalType": "bytes32",
          "name": "_myid",
          "type": "bytes32"
        },
        {
          "internalType": "string",
          "name": "_result",
          "type": "string"
        }
      ],
      "name": "__callback",
      "outputs": [],
      "payable": false,
      "stateMutability": "nonpayable",
      "type": "function"
    },
    {
      "constant": false,
      "inputs": [
        {
          "internalType": "bytes32",
          "name": "_myid",
          "type": "bytes32"
        },
        {
          "internalType": "string",
          "name": "_result",
          "type": "string"
        },
        {
          "internalType": "bytes",
          "name": "_proof",
          "type": "bytes"
        }
      ],
      "name": "__callback",
      "outputs": [],
      "payable": false,
      "stateMutability": "nonpayable",
      "type": "function"
    },
    {
      "constant": true,
      "inputs": [
        {
          "internalType": "address",
          "name": "_player",
          "type": "address"
        }
      ],
      "name": "getPlayerBalance",
      "outputs": [
        {
          "internalType": "uint256",
          "name": "",
          "type": "uint256"
        }
      ],
      "payable": false,
      "stateMutability": "view",
      "type": "function"
    },
    {
      "constant": false,
      "inputs": [],
      "name": "deposit",
      "outputs": [
        {
          "internalType": "uint256",
          "name": "",
          "type": "uint256"
        }
      ],
      "payable": true,
      "stateMutability": "payable",
      "type": "function"
    },
    {
      "constant": false,
      "inputs": [],
      "name": "withdrawFunds",
      "outputs": [],
      "payable": false,
      "stateMutability": "nonpayable",
      "type": "function"
    }
  ],
  "bytecode": "0x608060405262000019603060f81b6200003460201b60201c565b34600581905550662386f26fc1000060068190555062000a55565b600073ffffffffffffffffffffffffffffffffffffffff16600160009054906101000a900473ffffffffffffffffffffffffffffffffffffffff1673ffffffffffffffffffffffffffffffffffffffff161480620000c457506000620000c2600160009054906101000a900473ffffffffffffffffffffffffffffffffffffffff166200039760201b60201c565b145b15620000de57620000dc6000620003a260201b60201c565b505b600160009054906101000a900473ffffffffffffffffffffffffffffffffffffffff1673ffffffffffffffffffffffffffffffffffffffff166338cc48316040518163ffffffff1660e01b8152600401602060405180830381600087803b1580156200014957600080fd5b505af11580156200015e573d6000803e3d6000fd5b505050506040513d60208110156200017557600080fd5b810190808051906020019092919050505073ffffffffffffffffffffffffffffffffffffffff166000809054906101000a900473ffffffffffffffffffffffffffffffffffffffff1673ffffffffffffffffffffffffffffffffffffffff1614620002c257600160009054906101000a900473ffffffffffffffffffffffffffffffffffffffff1673ffffffffffffffffffffffffffffffffffffffff166338cc48316040518163ffffffff1660e01b8152600401602060405180830381600087803b1580156200024557600080fd5b505af11580156200025a573d6000803e3d6000fd5b505050506040513d60208110156200027157600080fd5b81019080805190602001909291905050506000806101000a81548173ffffffffffffffffffffffffffffffffffffffff021916908373ffffffffffffffffffffffffffffffffffffffff1602179055505b6000809054906101000a900473ffffffffffffffffffffffffffffffffffffffff1673ffffffffffffffffffffffffffffffffffffffff1663688dcfd7826040518263ffffffff1660e01b815260040180827effffffffffffffffffffffffffffffffffffffffffffffffffffffffffffff19167effffffffffffffffffffffffffffffffffffffffffffffffffffffffffffff19168152602001915050600060405180830381600087803b1580156200037b57600080fd5b505af115801562000390573d6000803e3d6000fd5b5050505050565b6000813b9050919050565b6000620003b4620003bb60201b60201c565b9050919050565b600080620003e3731d3b2638a7cc9f2cb3d298a3da7a90b67e5506ed6200039760201b60201c565b11156200048f57731d3b2638a7cc9f2cb3d298a3da7a90b67e5506ed600160006101000a81548173ffffffffffffffffffffffffffffffffffffffff021916908373ffffffffffffffffffffffffffffffffffffffff160217905550620004856040518060400160405280600b81526020017f6574685f6d61696e6e65740000000000000000000000000000000000000000008152506200098a60201b60201c565b6001905062000987565b6000620004b673c03a2615d5efaf5f49f60b7bb6583eaec212fdf16200039760201b60201c565b1115620005625773c03a2615d5efaf5f49f60b7bb6583eaec212fdf1600160006101000a81548173ffffffffffffffffffffffffffffffffffffffff021916908373ffffffffffffffffffffffffffffffffffffffff160217905550620005586040518060400160405280600c81526020017f6574685f726f707374656e3300000000000000000000000000000000000000008152506200098a60201b60201c565b6001905062000987565b60006200058973b7a07bcf2ba2f2703b24c0691b5278999c59ac7e6200039760201b60201c565b1115620006355773b7a07bcf2ba2f2703b24c0691b5278999c59ac7e600160006101000a81548173ffffffffffffffffffffffffffffffffffffffff021916908373ffffffffffffffffffffffffffffffffffffffff1602179055506200062b6040518060400160405280600981526020017f6574685f6b6f76616e00000000000000000000000000000000000000000000008152506200098a60201b60201c565b6001905062000987565b60006200065c73146500cfd35b22e4a392fe0adc06de1a1368ed486200039760201b60201c565b1115620007085773146500cfd35b22e4a392fe0adc06de1a1368ed48600160006101000a81548173ffffffffffffffffffffffffffffffffffffffff021916908373ffffffffffffffffffffffffffffffffffffffff160217905550620006fe6040518060400160405280600b81526020017f6574685f72696e6b6562790000000000000000000000000000000000000000008152506200098a60201b60201c565b6001905062000987565b60006200072f73a2998efd205fb9d4b4963afb70778d6354ad3a416200039760201b60201c565b1115620007db5773a2998efd205fb9d4b4963afb70778d6354ad3a41600160006101000a81548173ffffffffffffffffffffffffffffffffffffffff021916908373ffffffffffffffffffffffffffffffffffffffff160217905550620007d16040518060400160405280600a81526020017f6574685f676f65726c69000000000000000000000000000000000000000000008152506200098a60201b60201c565b6001905062000987565b600062000802736f485c8bf6fc43ea212e93bbf8ce046c7f1cb4756200039760201b60201c565b11156200086857736f485c8bf6fc43ea212e93bbf8ce046c7f1cb475600160006101000a81548173ffffffffffffffffffffffffffffffffffffffff021916908373ffffffffffffffffffffffffffffffffffffffff1602179055506001905062000987565b60006200088f7320e12a1f859b3feae5fb2a0a32c18f5a65555bbf6200039760201b60201c565b1115620008f5577320e12a1f859b3feae5fb2a0a32c18f5a65555bbf600160006101000a81548173ffffffffffffffffffffffffffffffffffffffff021916908373ffffffffffffffffffffffffffffffffffffffff1602179055506001905062000987565b60006200091c7351efaf4c8b3c9afbd5ab9f4bbc82784ab6ef8faa6200039760201b60201c565b111562000982577351efaf4c8b3c9afbd5ab9f4bbc82784ab6ef8faa600160006101000a81548173ffffffffffffffffffffffffffffffffffffffff021916908373ffffffffffffffffffffffffffffffffffffffff1602179055506001905062000987565b600090505b90565b8060029080519060200190620009a2929190620009a6565b5050565b828054600181600116156101000203166002900490600052602060002090601f016020900481019282601f10620009e957805160ff191683800117855562000a1a565b8280016001018555821562000a1a579182015b8281111562000a19578251825591602001919060010190620009fc565b5b50905062000a29919062000a2d565b5090565b62000a5291905b8082111562000a4e57600081600090555060010162000a34565b5090565b90565b6143778062000a656000396000f3fe6080604052600436106100a75760003560e01c8063818a04ff11610064578063818a04ff14610386578063aeee1f8814610401578063b69ef8a81461047f578063d0e30db0146104aa578063dac4f766146104c8578063e2734c93146104f3576100a7565b8063227377ec146100ac57806324600fc3146100d757806327dc297e146100ee57806338bbfa50146101c057806365372147146103295780637365870b14610358575b600080fd5b3480156100b857600080fd5b506100c1610558565b6040518082815260200191505060405180910390f35b3480156100e357600080fd5b506100ec61055e565b005b3480156100fa57600080fd5b506101be6004803603604081101561011157600080fd5b81019080803590602001909291908035906020019064010000000081111561013857600080fd5b82018360208201111561014a57600080fd5b8035906020019184600183028401116401000000008311171561016c57600080fd5b91908080601f016020809104026020016040519081016040528093929190818152602001838380828437600081840152601f19601f8201169050808301925050505050505091929192905050506108d9565b005b3480156101cc57600080fd5b50610327600480360360608110156101e357600080fd5b81019080803590602001909291908035906020019064010000000081111561020a57600080fd5b82018360208201111561021c57600080fd5b8035906020019184600183028401116401000000008311171561023e57600080fd5b91908080601f016020809104026020016040519081016040528093929190818152602001838380828437600081840152601f19601f820116905080830192505050505050509192919290803590602001906401000000008111156102a157600080fd5b8201836020820111156102b357600080fd5b803590602001918460018302840111640100000000831117156102d557600080fd5b91908080601f016020809104026020016040519081016040528093929190818152602001838380828437600081840152601f19601f82011690508083019250505050505050919291929050505061091c565b005b34801561033557600080fd5b5061033e610ac1565b604051808215151515815260200191505060405180910390f35b6103846004803603602081101561036e57600080fd5b8101908080359060200190929190505050610ad4565b005b34801561039257600080fd5b506103bf600480360360208110156103a957600080fd5b8101908080359060200190929190505050610da1565b604051808273ffffffffffffffffffffffffffffffffffffffff1673ffffffffffffffffffffffffffffffffffffffff16815260200191505060405180910390f35b34801561040d57600080fd5b506104506004803603602081101561042457600080fd5b81019080803573ffffffffffffffffffffffffffffffffffffffff169060200190929190505050610dd4565b604051808581526020018481526020018381526020018215151515815260200194505050505060405180910390f35b34801561048b57600080fd5b50610494610e11565b6040518082815260200191505060405180910390f35b6104b2610e17565b6040518082815260200191505060405180910390f35b3480156104d457600080fd5b506104dd610e9a565b6040518082815260200191505060405180910390f35b3480156104ff57600080fd5b506105426004803603602081101561051657600080fd5b81019080803573ffffffffffffffffffffffffffffffffffffffff169060200190929190505050610ea0565b6040518082815260200191505060405180910390f35b60085481565b600073ffffffffffffffffffffffffffffffffffffffff163373ffffffffffffffffffffffffffffffffffffffff161415610601576040517f08c379a00000000000000000000000000000000000000000000000000000000081526004018080602001828103825260118152602001807f6e6f74206578697374206164647265737300000000000000000000000000000081525060200191505060405180910390fd5b6000600960003373ffffffffffffffffffffffffffffffffffffffff1673ffffffffffffffffffffffffffffffffffffffff16815260200190815260200160002060000154116106b9576040517f08c379a000000000000000000000000000000000000000000000000000000000815260040180806020018281038252601c8152602001807f4e6f7420656e6f7567682066756e647320746f2077697468647261770000000081525060200191505060405180910390fd5b60001515600960003373ffffffffffffffffffffffffffffffffffffffff1673ffffffffffffffffffffffffffffffffffffffff16815260200190815260200160002060030160009054906101000a900460ff16151514610765576040517f08c379a00000000000000000000000000000000000000000000000000000000081526004018080602001828103825260228152602001806142656022913960400191505060405180910390fd5b6000600960003373ffffffffffffffffffffffffffffffffffffffff1673ffffffffffffffffffffffffffffffffffffffff1681526020019081526020016000206000015490503373ffffffffffffffffffffffffffffffffffffffff166108fc829081150290604051600060405180830381858888f193505050501580156107f2573d6000803e3d6000fd5b50600960003373ffffffffffffffffffffffffffffffffffffffff1673ffffffffffffffffffffffffffffffffffffffff168152602001908152602001600020600080820160009055600182016000905560028201600090556003820160006101000a81549060ff021916905550507ff43f927450eaf602c442487ab0063985c11e0da34de2d5953d7c96edf97f57d73382600554604051808473ffffffffffffffffffffffffffffffffffffffff1673ffffffffffffffffffffffffffffffffffffffff168152602001838152602001828152602001935050505060405180910390a150565b610918828260006040519080825280601f01601f1916602001820160405280156109125781602001600182028038833980820191505090505b5061091c565b5050565b610924610eec565b73ffffffffffffffffffffffffffffffffffffffff163373ffffffffffffffffffffffffffffffffffffffff161461095b57600080fd5b6000610968848484611209565b60ff16146109de576040517f08c379a000000000000000000000000000000000000000000000000000000000815260040180806020018281038252601f8152602001807f43616c6c206e6f7420636f6d696e672066726f6d20746865206f7261636c650081525060200191505060405180910390fd5b60006002836040516020018082805190602001908083835b60208310610a1957805182526020820191506020810190506020830392506109f6565b6001836020036101000a0380198251168184511680821785525050505050509050019150506040516020818303038152906040528051906020012060001c81610a5e57fe5b069050610a6b8482611339565b600760006101000a81548160ff0219169083151502179055507f4303707e98d7b86c6197a2b41914fc650bc708c7d3111930f2ec8ee7cf1cf394816040518082815260200191505060405180910390a150505050565b600760009054906101000a900460ff1681565b600654341015610b4c576040517f08c379a00000000000000000000000000000000000000000000000000000000081526004018080602001828103825260118152602001807f4e6f7420656e6f75676820616d6f756e7400000000000000000000000000000081525060200191505060405180910390fd5b600554341115610ba7576040517f08c379a00000000000000000000000000000000000000000000000000000000081526004018080602001828103825260318152602001806142346031913960400191505060405180910390fd5b60001515600960003373ffffffffffffffffffffffffffffffffffffffff1673ffffffffffffffffffffffffffffffffffffffff16815260200190815260200160002060030160009054906101000a900460ff16151514610c53576040517f08c379a00000000000000000000000000000000000000000000000000000000081526004018080602001828103825260228152602001806143216022913960400191505060405180910390fd5b6001811115610cad576040517f08c379a00000000000000000000000000000000000000000000000000000000081526004018080602001828103825260248152602001806142c76024913960400191505060405180910390fd5b6001600960003373ffffffffffffffffffffffffffffffffffffffff1673ffffffffffffffffffffffffffffffffffffffff16815260200190815260200160002060030160006101000a81548160ff02191690831515021790555034600960003373ffffffffffffffffffffffffffffffffffffffff1673ffffffffffffffffffffffffffffffffffffffff1681526020019081526020016000206001018190555080600960003373ffffffffffffffffffffffffffffffffffffffff1673ffffffffffffffffffffffffffffffffffffffff16815260200190815260200160002060020181905550610d9e6116ab565b50565b600a6020528060005260406000206000915054906101000a900473ffffffffffffffffffffffffffffffffffffffff1681565b60096020528060005260406000206000915090508060000154908060010154908060020154908060030160009054906101000a900460ff16905084565b60055481565b6000346005600082825401925050819055507fad94e437ad4db10917caa6e4060475c768bc8f8a74a593a048ec0f086029486a3334604051808373ffffffffffffffffffffffffffffffffffffffff1673ffffffffffffffffffffffffffffffffffffffff1681526020018281526020019250505060405180910390a134905090565b60065481565b6000600960008373ffffffffffffffffffffffffffffffffffffffff1673ffffffffffffffffffffffffffffffffffffffff168152602001908152602001600020600001549050919050565b60008073ffffffffffffffffffffffffffffffffffffffff16600160009054906101000a900473ffffffffffffffffffffffffffffffffffffffff1673ffffffffffffffffffffffffffffffffffffffff161480610f7457506000610f72600160009054906101000a900473ffffffffffffffffffffffffffffffffffffffff1661179e565b145b15610f8557610f8360006117a9565b505b600160009054906101000a900473ffffffffffffffffffffffffffffffffffffffff1673ffffffffffffffffffffffffffffffffffffffff166338cc48316040518163ffffffff1660e01b8152600401602060405180830381600087803b158015610fef57600080fd5b505af1158015611003573d6000803e3d6000fd5b505050506040513d602081101561101957600080fd5b810190808051906020019092919050505073ffffffffffffffffffffffffffffffffffffffff166000809054906101000a900473ffffffffffffffffffffffffffffffffffffffff1673ffffffffffffffffffffffffffffffffffffffff161461116257600160009054906101000a900473ffffffffffffffffffffffffffffffffffffffff1673ffffffffffffffffffffffffffffffffffffffff166338cc48316040518163ffffffff1660e01b8152600401602060405180830381600087803b1580156110e757600080fd5b505af11580156110fb573d6000803e3d6000fd5b505050506040513d602081101561111157600080fd5b81019080805190602001909291905050506000806101000a81548173ffffffffffffffffffffffffffffffffffffffff021916908373ffffffffffffffffffffffffffffffffffffffff1602179055505b6000809054906101000a900473ffffffffffffffffffffffffffffffffffffffff1673ffffffffffffffffffffffffffffffffffffffff1663c281d19e6040518163ffffffff1660e01b815260040160206040518083038186803b1580156111c957600080fd5b505afa1580156111dd573d6000803e3d6000fd5b505050506040513d60208110156111f357600080fd5b8101908080519060200190929190505050905090565b60007f4c000000000000000000000000000000000000000000000000000000000000008260008151811061123957fe5b602001015160f81c60f81b7effffffffffffffffffffffffffffffffffffffffffffffffffffffffffffff19161415806112cc57507f50000000000000000000000000000000000000000000000000000000000000008260018151811061129c57fe5b602001015160f81c60f81b7effffffffffffffffffffffffffffffffffffffffffffffffffffffffffffff191614155b806112f85750600160ff16826002815181106112e457fe5b602001015160f81c60f81b60f81c60ff1614155b156113065760019050611332565b600061131b8386866113166117ba565b61185c565b90508061132c576002915050611332565b60009150505b9392505050565b600080600a600085815260200190815260200160002060009054906101000a900473ffffffffffffffffffffffffffffffffffffffff169050600080905083600960008473ffffffffffffffffffffffffffffffffffffffff1673ffffffffffffffffffffffffffffffffffffffff1681526020019081526020016000206002015414156114b157600190506002600960008473ffffffffffffffffffffffffffffffffffffffff1673ffffffffffffffffffffffffffffffffffffffff1681526020019081526020016000206001015402600960008473ffffffffffffffffffffffffffffffffffffffff1673ffffffffffffffffffffffffffffffffffffffff16815260200190815260200160002060000160008282540192505081905550600960008373ffffffffffffffffffffffffffffffffffffffff1673ffffffffffffffffffffffffffffffffffffffff16815260200190815260200160002060010154600560008282540392505081905550611504565b600960008373ffffffffffffffffffffffffffffffffffffffff1673ffffffffffffffffffffffffffffffffffffffff168152602001908152602001600020600101546005600082825401925050819055505b7fe77c0826e58a07f069a0181661e9222935a3077308a0c9077d18275c117135c28583600960008673ffffffffffffffffffffffffffffffffffffffff1673ffffffffffffffffffffffffffffffffffffffff1681526020019081526020016000206002015484600960008873ffffffffffffffffffffffffffffffffffffffff1673ffffffffffffffffffffffffffffffffffffffff16815260200190815260200160002060010154604051808681526020018573ffffffffffffffffffffffffffffffffffffffff1673ffffffffffffffffffffffffffffffffffffffff168152602001848152602001831515151581526020018281526020019550505050505060405180910390a16000600960008473ffffffffffffffffffffffffffffffffffffffff1673ffffffffffffffffffffffffffffffffffffffff16815260200190815260200160002060030160006101000a81548160ff021916908315150217905550600a600086815260200190815260200160002060006101000a81549073ffffffffffffffffffffffffffffffffffffffff0219169055809250505092915050565b6000809050600062030d40905060006116c683600184611f07565b905033600a600083815260200190815260200160002060006101000a81548173ffffffffffffffffffffffffffffffffffffffff021916908373ffffffffffffffffffffffffffffffffffffffff1602179055507fb1a7310b1a46c788fcf30784cad70442d5232acaef480b0c094c76bee8d9c77d3360405180806020018373ffffffffffffffffffffffffffffffffffffffff1673ffffffffffffffffffffffffffffffffffffffff168152602001828103825260368152602001806142eb603691396040019250505060405180910390a1505050565b6000813b9050919050565b60006117b36124a2565b9050919050565b606060028054600181600116156101000203166002900480601f0160208091040260200160405190810160405280929190818152602001828054600181600116156101000203166002900480156118525780601f1061182757610100808354040283529160200191611852565b820191906000526020600020905b81548152906001019060200180831161183557829003601f168201915b5050505050905090565b600080602060028760458151811061187057fe5b602001015160f81c60f81b60f81c60ff1601604401019050606060206040519080825280601f01601f1916602001820160405280156118be5781602001600182028038833980820191505090505b5090506118d0878360208460006129f9565b50600284876040516020018083805190602001908083835b6020831061190b57805182526020820191506020810190506020830392506118e8565b6001836020036101000a038019825116818451168082178552505050505050905001828152602001925050506040516020818303038152906040526040518082805190602001908083835b602083106119795780518252602082019150602081019050602083039250611956565b6001836020036101000a038019825116818451168082178552505050505050905001915050602060405180830381855afa1580156119bb573d6000803e3d6000fd5b5050506040513d60208110156119d057600080fd5b81019080805190602001909291905050506040516020018082815260200191505060405160208183030381529060405280519060200120818051906020012014611a1f57600092505050611eff565b60606002886001604986010181518110611a3557fe5b602001015160f81c60f81b60f81c60ff16016040519080825280601f01601f191660200182016040528015611a795781602001600182028038833980820191505090505b509050611a8e886049850183518460006129f9565b50611b596002826040518082805190602001908083835b60208310611ac85780518252602082019150602081019050602083039250611aa5565b6001836020036101000a038019825116818451168082178552505050505050905001915050602060405180830381855afa158015611b0a573d6000803e3d6000fd5b5050506040513d6020811015611b1f57600080fd5b8101908080519060200190929190505050878a6008602088010181518110611b4357fe5b602001015160f81c60f81b60f81c60ff16612a58565b611b695760009350505050611eff565b606060296040519080825280601f01601f191660200182016040528015611b9f5781602001600182028038833980820191505090505b509050611bb4896020860160298460006129f9565b506060604080519080825280601f01601f191660200182016040528015611bea5781602001600182028038833980820191505090505b5090506000604184516029602089010101019050611c108b6040830360408560006129f9565b5060006002836040518082805190602001908083835b60208310611c495780518252602082019150602081019050602083039250611c26565b6001836020036101000a038019825116818451168082178552505050505050905001915050602060405180830381855afa158015611c8b573d6000803e3d6000fd5b5050506040513d6020811015611ca057600080fd5b8101908080519060200190929190505050905083816040516020018083805190602001908083835b60208310611ceb5780518252602082019150602081019050602083039250611cc8565b6001836020036101000a0380198251168184511680821785525050505050509050018281526020019250505060405160208183030381529060405280519060200120600360008d8152602001908152602001600020541415611d6357600360008c815260200190815260200160002060009055611d73565b6000975050505050505050611eff565b606060496040519080825280601f01601f191660200182016040528015611da95781602001600182028038833980820191505090505b509050611dbb8d8960498460006129f9565b50611e646002826040518082805190602001908083835b60208310611df55780518252602082019150602081019050602083039250611dd2565b6001836020036101000a038019825116818451168082178552505050505050905001915050602060405180830381855afa158015611e37573d6000803e3d6000fd5b5050506040513d6020811015611e4c57600080fd5b81019080805190602001909291905050508786612b08565b611e7957600098505050505050505050611eff565b6004600083815260200190815260200160002060009054906101000a900460ff16611ed357611ea88d84612cc6565b6004600084815260200190815260200160002060006101000a81548160ff0219169083151502179055505b6004600083815260200190815260200160002060009054906101000a900460ff16985050505050505050505b949350505050565b60008083118015611f19575060208311155b611f2257600080fd5b600a84029350606060016040519080825280601f01601f191660200182016040528015611f5e5781602001600182028038833980820191505090505b5090508360f81b81600081518110611f7257fe5b60200101907effffffffffffffffffffffffffffffffffffffffffffffffffffffffffffff1916908160001a905350606060206040519080825280601f01601f191660200182016040528015611fd75781602001600182028038833980820191505090505b509050606060206040519080825280601f01601f1916602001820160405280156120105781602001600182028038833980820191505090505b509050600061201d6130de565b905060208352424118600143034018602084015260208252806020830152606060206040519080825280601f01601f1916602001820160405280156120715781602001600182028038833980820191505090505b509050886020820152606060086040519080825280601f01601f1916602001820160405280156120b05781602001600182028038833980820191505090505b5090506120c382601860088460006129f9565b506120cc61414d565b604051806080016040528087815260200188815260200186815260200184815250905060006121316040518060400160405280600681526020017f72616e646f6d0000000000000000000000000000000000000000000000000000815250838c6133fb565b9050606060086040519080825280601f01601f1916602001820160405280156121695781602001600182028038833980820191505090505b50905060208401517f0100000000000000000000000000000000000000000000000000000000000000810460278301537e01000000000000000000000000000000000000000000000000000000000000810460268301537d010000000000000000000000000000000000000000000000000000000000810460258301537c0100000000000000000000000000000000000000000000000000000000810460248301537b01000000000000000000000000000000000000000000000000000000810460238301537a01000000000000000000000000000000000000000000000000000081046022830153790100000000000000000000000000000000000000000000000000810460218301537801000000000000000000000000000000000000000000000000810460208301535061248f8282856001600481106122a857fe5b60200201516002876000600481106122bc57fe5b60200201516040518082805190602001908083835b602083106122f457805182526020820191506020810190506020830392506122d1565b6001836020036101000a038019825116818451168082178552505050505050905001915050602060405180830381855afa158015612336573d6000803e3d6000fd5b5050506040513d602081101561234b57600080fd5b81019080805190602001909291905050508760026004811061236957fe5b60200201516040516020018085805190602001908083835b602083106123a45780518252602082019150602081019050602083039250612381565b6001836020036101000a03801982511681845116808217855250505050505090500184805190602001908083835b602083106123f557805182526020820191506020810190506020830392506123d2565b6001836020036101000a03801982511681845116808217855250505050505090500183815260200182805190602001908083835b6020831061244c5780518252602082019150602081019050602083039250612429565b6001836020036101000a03801982511681845116808217855250505050505090500194505050505060405160208183030381529060405280519060200120613768565b8199505050505050505050509392505050565b6000806124c2731d3b2638a7cc9f2cb3d298a3da7a90b67e5506ed61179e565b111561256457731d3b2638a7cc9f2cb3d298a3da7a90b67e5506ed600160006101000a81548173ffffffffffffffffffffffffffffffffffffffff021916908373ffffffffffffffffffffffffffffffffffffffff16021790555061255b6040518060400160405280600b81526020017f6574685f6d61696e6e6574000000000000000000000000000000000000000000815250613784565b600190506129f6565b600061258373c03a2615d5efaf5f49f60b7bb6583eaec212fdf161179e565b11156126255773c03a2615d5efaf5f49f60b7bb6583eaec212fdf1600160006101000a81548173ffffffffffffffffffffffffffffffffffffffff021916908373ffffffffffffffffffffffffffffffffffffffff16021790555061261c6040518060400160405280600c81526020017f6574685f726f707374656e330000000000000000000000000000000000000000815250613784565b600190506129f6565b600061264473b7a07bcf2ba2f2703b24c0691b5278999c59ac7e61179e565b11156126e65773b7a07bcf2ba2f2703b24c0691b5278999c59ac7e600160006101000a81548173ffffffffffffffffffffffffffffffffffffffff021916908373ffffffffffffffffffffffffffffffffffffffff1602179055506126dd6040518060400160405280600981526020017f6574685f6b6f76616e0000000000000000000000000000000000000000000000815250613784565b600190506129f6565b600061270573146500cfd35b22e4a392fe0adc06de1a1368ed4861179e565b11156127a75773146500cfd35b22e4a392fe0adc06de1a1368ed48600160006101000a81548173ffffffffffffffffffffffffffffffffffffffff021916908373ffffffffffffffffffffffffffffffffffffffff16021790555061279e6040518060400160405280600b81526020017f6574685f72696e6b656279000000000000000000000000000000000000000000815250613784565b600190506129f6565b60006127c673a2998efd205fb9d4b4963afb70778d6354ad3a4161179e565b11156128685773a2998efd205fb9d4b4963afb70778d6354ad3a41600160006101000a81548173ffffffffffffffffffffffffffffffffffffffff021916908373ffffffffffffffffffffffffffffffffffffffff16021790555061285f6040518060400160405280600a81526020017f6574685f676f65726c6900000000000000000000000000000000000000000000815250613784565b600190506129f6565b6000612887736f485c8bf6fc43ea212e93bbf8ce046c7f1cb47561179e565b11156128eb57736f485c8bf6fc43ea212e93bbf8ce046c7f1cb475600160006101000a81548173ffffffffffffffffffffffffffffffffffffffff021916908373ffffffffffffffffffffffffffffffffffffffff160217905550600190506129f6565b600061290a7320e12a1f859b3feae5fb2a0a32c18f5a65555bbf61179e565b111561296e577320e12a1f859b3feae5fb2a0a32c18f5a65555bbf600160006101000a81548173ffffffffffffffffffffffffffffffffffffffff021916908373ffffffffffffffffffffffffffffffffffffffff160217905550600190506129f6565b600061298d7351efaf4c8b3c9afbd5ab9f4bbc82784ab6ef8faa61179e565b11156129f1577351efaf4c8b3c9afbd5ab9f4bbc82784ab6ef8faa600160006101000a81548173ffffffffffffffffffffffffffffffffffffffff021916908373ffffffffffffffffffffffffffffffffffffffff160217905550600190506129f6565b600090505b90565b6060600082850190508084511015612a1057600080fd5b600086602001905060008460200190505b868860200101821015612a495781890151808288015250602082019150602081019050612a21565b85935050505095945050505050565b6000806001905082845114612a6c57600080fd5b60008090505b83811015612afc57848181518110612a8657fe5b602001015160f81c60f81b7effffffffffffffffffffffffffffffffffffffffffffffffffffffffffffff1916868260208110612abf57fe5b1a60f81b7effffffffffffffffffffffffffffffffffffffffffffffffffffffffffffff191614612aef57600091505b8080600101915050612a72565b50809150509392505050565b6000806000806000606060206040519080825280601f01601f191660200182016040528015612b465781602001600182028038833980820191505090505b5090506000602089600381518110612b5a57fe5b602001015160f81c60f81b60f81c60ff16036004019050612b80898260208560006129f9565b9150606060206040519080825280601f01601f191660200182016040528015612bb85781602001600182028038833980820191505090505b509050602282019150612bf48a60208c6001860381518110612bd657fe5b602001015160f81c60f81b60f81c60ff1603840160208460006129f9565b90506020830151945060208101519350612c118b601b878761379e565b80975081985050508573ffffffffffffffffffffffffffffffffffffffff16898051906020012060001c73ffffffffffffffffffffffffffffffffffffffff161415612c67576001975050505050505050612cbf565b612c748b601c878761379e565b80975081985050508573ffffffffffffffffffffffffffffffffffffffff16898051906020012060001c73ffffffffffffffffffffffffffffffffffffffff16149750505050505050505b9392505050565b60008060606002856001860181518110612cdc57fe5b602001015160f81c60f81b60f81c60ff16016040519080825280601f01601f191660200182016040528015612d205781602001600182028038833980820191505090505b509050612d32858583518460006129f9565b506060604080519080825280601f01601f191660200182016040528015612d685781602001600182028038833980820191505090505b509050612d7b86600460408460006129f9565b50606060626040519080825280601f01601f191660200182016040528015612db25781602001600182028038833980820191505090505b509050600160f81b81600081518110612dc757fe5b60200101907effffffffffffffffffffffffffffffffffffffffffffffffffffffffffffff1916908160001a905350612e08876041880360418460016129f9565b5060606040518060400160405280602081526020017ffd94fa71bc0ba10d39d464d0d8f465efeef0a2764e3887fcc9df41ded20f505c8152509050612e5381600060208560426129f9565b50612efc6002836040518082805190602001908083835b60208310612e8d5780518252602082019150602081019050602083039250612e6a565b6001836020036101000a038019825116818451168082178552505050505050905001915050602060405180830381855afa158015612ecf573d6000803e3d6000fd5b5050506040513d6020811015612ee457600080fd5b81019080805190602001909291905050508585612b08565b945084612f11576000955050505050506130d8565b6060604051806060016040528060408152602001614287604091399050606060426040519080825280601f01601f191660200182016040528015612f645781602001600182028038833980820191505090505b50905060fe60f81b81600081518110612f7957fe5b60200101907effffffffffffffffffffffffffffffffffffffffffffffffffffffffffffff1916908160001a905350612fb88a600360418460016129f9565b50606060028b604581518110612fca57fe5b602001015160f81c60f81b60f81c60ff16016040519080825280601f01601f19166020018201604052801561300e5781602001600182028038833980820191505090505b5090506130218b604483518460006129f9565b506130ca6002836040518082805190602001908083835b6020831061305b5780518252602082019150602081019050602083039250613038565b6001836020036101000a038019825116818451168082178552505050505050905001915050602060405180830381855afa15801561309d573d6000803e3d6000fd5b5050506040513d60208110156130b257600080fd5b81019080805190602001909291905050508285612b08565b975087985050505050505050505b92915050565b60008073ffffffffffffffffffffffffffffffffffffffff16600160009054906101000a900473ffffffffffffffffffffffffffffffffffffffff1673ffffffffffffffffffffffffffffffffffffffff16148061316657506000613164600160009054906101000a900473ffffffffffffffffffffffffffffffffffffffff1661179e565b145b156131775761317560006117a9565b505b600160009054906101000a900473ffffffffffffffffffffffffffffffffffffffff1673ffffffffffffffffffffffffffffffffffffffff166338cc48316040518163ffffffff1660e01b8152600401602060405180830381600087803b1580156131e157600080fd5b505af11580156131f5573d6000803e3d6000fd5b505050506040513d602081101561320b57600080fd5b810190808051906020019092919050505073ffffffffffffffffffffffffffffffffffffffff166000809054906101000a900473ffffffffffffffffffffffffffffffffffffffff1673ffffffffffffffffffffffffffffffffffffffff161461335457600160009054906101000a900473ffffffffffffffffffffffffffffffffffffffff1673ffffffffffffffffffffffffffffffffffffffff166338cc48316040518163ffffffff1660e01b8152600401602060405180830381600087803b1580156132d957600080fd5b505af11580156132ed573d6000803e3d6000fd5b505050506040513d602081101561330357600080fd5b81019080805190602001909291905050506000806101000a81548173ffffffffffffffffffffffffffffffffffffffff021916908373ffffffffffffffffffffffffffffffffffffffff1602179055505b6000809054906101000a900473ffffffffffffffffffffffffffffffffffffffff1673ffffffffffffffffffffffffffffffffffffffff1663abaa5f3e6040518163ffffffff1660e01b815260040160206040518083038186803b1580156133bb57600080fd5b505afa1580156133cf573d6000803e3d6000fd5b505050506040513d60208110156133e557600080fd5b8101908080519060200190929190505050905090565b60008073ffffffffffffffffffffffffffffffffffffffff16600160009054906101000a900473ffffffffffffffffffffffffffffffffffffffff1673ffffffffffffffffffffffffffffffffffffffff16148061348357506000613481600160009054906101000a900473ffffffffffffffffffffffffffffffffffffffff1661179e565b145b156134945761349260006117a9565b505b600160009054906101000a900473ffffffffffffffffffffffffffffffffffffffff1673ffffffffffffffffffffffffffffffffffffffff166338cc48316040518163ffffffff1660e01b8152600401602060405180830381600087803b1580156134fe57600080fd5b505af1158015613512573d6000803e3d6000fd5b505050506040513d602081101561352857600080fd5b810190808051906020019092919050505073ffffffffffffffffffffffffffffffffffffffff166000809054906101000a900473ffffffffffffffffffffffffffffffffffffffff1673ffffffffffffffffffffffffffffffffffffffff161461367157600160009054906101000a900473ffffffffffffffffffffffffffffffffffffffff1673ffffffffffffffffffffffffffffffffffffffff166338cc48316040518163ffffffff1660e01b8152600401602060405180830381600087803b1580156135f657600080fd5b505af115801561360a573d6000803e3d6000fd5b505050506040513d602081101561362057600080fd5b81019080805190602001909291905050506000806101000a81548173ffffffffffffffffffffffffffffffffffffffff021916908373ffffffffffffffffffffffffffffffffffffffff1602179055505b606060046040519080825280602002602001820160405280156136a857816020015b60608152602001906001900390816136935790505b509050836000600481106136b857fe5b6020020151816000815181106136ca57fe5b6020026020010181905250836001600481106136e257fe5b6020020151816001815181106136f457fe5b60200260200101819052508360026004811061370c57fe5b60200201518160028151811061371e57fe5b60200260200101819052508360036004811061373657fe5b60200201518160038151811061374857fe5b602002602001018190525061375e8582856137e2565b9150509392505050565b8060036000848152602001908152602001600020819055505050565b806002908051906020019061379a929190614174565b5050565b60008060008060405188815287602082015286604082015285606082015260208160808360006001610bb8f192508051915050818193509350505094509492505050565b60008073ffffffffffffffffffffffffffffffffffffffff16600160009054906101000a900473ffffffffffffffffffffffffffffffffffffffff1673ffffffffffffffffffffffffffffffffffffffff16148061386a57506000613868600160009054906101000a900473ffffffffffffffffffffffffffffffffffffffff1661179e565b145b1561387b5761387960006117a9565b505b600160009054906101000a900473ffffffffffffffffffffffffffffffffffffffff1673ffffffffffffffffffffffffffffffffffffffff166338cc48316040518163ffffffff1660e01b8152600401602060405180830381600087803b1580156138e557600080fd5b505af11580156138f9573d6000803e3d6000fd5b505050506040513d602081101561390f57600080fd5b810190808051906020019092919050505073ffffffffffffffffffffffffffffffffffffffff166000809054906101000a900473ffffffffffffffffffffffffffffffffffffffff1673ffffffffffffffffffffffffffffffffffffffff1614613a5857600160009054906101000a900473ffffffffffffffffffffffffffffffffffffffff1673ffffffffffffffffffffffffffffffffffffffff166338cc48316040518163ffffffff1660e01b8152600401602060405180830381600087803b1580156139dd57600080fd5b505af11580156139f1573d6000803e3d6000fd5b505050506040513d6020811015613a0757600080fd5b81019080805190602001909291905050506000806101000a81548173ffffffffffffffffffffffffffffffffffffffff021916908373ffffffffffffffffffffffffffffffffffffffff1602179055505b60008060009054906101000a900473ffffffffffffffffffffffffffffffffffffffff1673ffffffffffffffffffffffffffffffffffffffff16632ef3accc86856040518363ffffffff1660e01b81526004018080602001838152602001828103825284818151815260200191508051906020019080838360005b83811015613aee578082015181840152602081019050613ad3565b50505050905090810190601f168015613b1b5780820380516001836020036101000a031916815260200191505b509350505050602060405180830381600087803b158015613b3b57600080fd5b505af1158015613b4f573d6000803e3d6000fd5b505050506040513d6020811015613b6557600080fd5b81019080805190602001909291905050509050823a02670de0b6b3a764000001811115613b98576000801b915050613d3d565b6060613ba385613d44565b90506000809054906101000a900473ffffffffffffffffffffffffffffffffffffffff1673ffffffffffffffffffffffffffffffffffffffff1663c55c1cb68360008985896040518663ffffffff1660e01b8152600401808581526020018060200180602001848152602001838103835286818151815260200191508051906020019080838360005b83811015613c47578082015181840152602081019050613c2c565b50505050905090810190601f168015613c745780820380516001836020036101000a031916815260200191505b50838103825285818151815260200191508051906020019080838360005b83811015613cad578082015181840152602081019050613c92565b50505050905090810190601f168015613cda5780820380516001836020036101000a031916815260200191505b5096505050505050506020604051808303818588803b158015613cfc57600080fd5b505af1158015613d10573d6000803e3d6000fd5b50505050506040513d6020811015613d2757600080fd5b8101908080519060200190929190505050925050505b9392505050565b6060613d4e613dc4565b613d566141f4565b613d6281610400613dd0565b613d6b81613e1a565b60008090505b8351811015613dad57613da0848281518110613d8957fe5b602002602001015183613e2890919063ffffffff16565b8080600101915050613d71565b50613db781613e4d565b8060000151915050919050565b60405180590338823950565b6000819050600060208281613de157fe5b0614613dfa5760208181613df157fe5b06602003810190505b808360200181815250506040518084526000815281810160405250505050565b613e25816004613e5b565b50565b613e358260028351613e7c565b613e488183613fbc90919063ffffffff16565b505050565b613e58816007613e5b565b50565b613e78601f60058360ff16901b178361406790919063ffffffff16565b5050565b60178111613ea857613ea38160058460ff16901b60ff16178461406790919063ffffffff16565b613fb7565b60ff8111613ee957613ecd601860058460ff16901b178461406790919063ffffffff16565b613ee3816001856140a79092919063ffffffff16565b50613fb6565b61ffff8111613f2b57613f0f601960058460ff16901b178461406790919063ffffffff16565b613f25816002856140a79092919063ffffffff16565b50613fb5565b63ffffffff8111613f6f57613f53601a60058460ff16901b178461406790919063ffffffff16565b613f69816004856140a79092919063ffffffff16565b50613fb4565b67ffffffffffffffff8111613fb357613f9b601b60058460ff16901b178461406790919063ffffffff16565b613fb1816008856140a79092919063ffffffff16565b505b5b5b5b5b505050565b613fc46141f4565b82602001518360000151518351011115613ff457613ff3836002613fed8660200151865161410e565b0261412a565b5b60008060008451905085518051602081830101945086518101825260208701935050505b6020811061403b5781518352602083019250602082019150602081039050614018565b60006001826020036101000a039050801983511681855116818117865250508694505050505092915050565b8160200151600183600001515101111561408d5761408c82600284602001510261412a565b5b815180516020818301018381536001820183525050505050565b6140af6141f4565b8360200151846000015151830111156140dd576140dc8460026140d687602001518661410e565b0261412a565b5b60006001836101000a0390508451805184818301018684198251161781528582018352505050849150509392505050565b60008183111561412057829050614124565b8190505b92915050565b60608260000151905061413d8383613dd0565b6141478382613fbc565b50505050565b60405180608001604052806004905b606081526020019060019003908161415c5790505090565b828054600181600116156101000203166002900490600052602060002090601f016020900481019282601f106141b557805160ff19168380011785556141e3565b828001600101855582156141e3579182015b828111156141e25782518255916020019190600101906141c7565b5b5090506141f0919061420e565b5090565b604051806040016040528060608152602001600081525090565b61423091905b8082111561422c576000816000905550600101614214565b5090565b9056fe436f6e747261637420686173206e6f7420656e6f7567682066756e647320746f20706572666f726d207468697320626574746869732061646472657373207374696c6c2068617320616e206f70656e206265747fb956469c5c9b89840d55b43537e66a98dd4811ea0a27224272c2e5622911e8537a2f8e86a46baec82864e98dd01e9ccc2f8bc5dfc9cbe5a91a290498dd96e454686520706172616d65746572205f63686f696365206d7573742062652030206f72203150726f7661626c65207175657279207761732073656e742c207374616e64696e6720627920666f722074686520616e737765722e2e2e546869732061646472657373207374696c6c2068617320616e206f70656e20626574a265627a7a723158209b5f30f520de928763fbba845a55d1679e85e6bfa8a1ea5bb304ec4c543c988564736f6c634300050c0032",
  "source": "// // SPDX-License-Identifier: MIT\n// pragma solidity >=0.4.22 <0.9.0;\npragma solidity 0.5.12;\n\nimport \"./api/provableAPI_0.5.sol\";\n\ncontract CoinFlip is usingProvable {\n    uint256 public balance;\n    uint256 public minimumBetNumber;\n    bool public result;\n\n    uint256 constant NUM_RANDOM_BYTES_REQUESTED = 1;\n    uint256 public latetstNumber;\n\n    struct Player {\n        uint256 balance;\n        uint256 betAmount;\n        uint256 betChoice;\n        bool isWaiting;\n    }\n\n    mapping(address => Player) public betters; //to check who's the player\n    mapping(bytes32 => address) public pendingBets; //to check who's the sender of a pending bet\n\n    event ClosedBet(\n        bytes32 betId,\n        address player,\n        uint256 choice,\n        bool victory,\n        uint256 amount\n    );\n\n    event WithdrawnFundsFromPlayer(\n        address player,\n        uint256 amount,\n        uint256 contractBalance\n    );\n\n    event OccuredDeposit(address, uint256);\n\n    event LogNewProvableQuery(string description, address sender);\n\n    event generateRandomNumber(uint256 randomNumber);\n\n    modifier costsAtLeast {\n        require(msg.value >= minimumBetNumber, \"Not enough amount\");\n        _;\n    }\n\n    constructor() public payable {\n        provable_setProof(proofType_Ledger);\n        balance = msg.value;\n        minimumBetNumber = 0.01 ether;\n    }\n\n    function bet(uint256 _choice) public payable costsAtLeast {\n        require(\n            msg.value <= balance,\n            \"Contract has not enough funds to perform this bet\"\n        );\n        require(\n            betters[msg.sender].isWaiting == false,\n            \"This address still has an open bet\"\n        );\n        require(_choice <= 1, \"The parameter _choice must be 0 or 1\");\n\n        betters[msg.sender].isWaiting = true;\n        betters[msg.sender].betAmount = msg.value;\n        betters[msg.sender].betChoice = _choice;\n\n        update();\n    }\n\n    function update() internal {\n        uint256 QUERY_EXECUTION_DELAY = 0;\n        uint256 GAS_FOR_CALLBACK = 200000;\n\n        //production mode\n        bytes32 queryId =\n            provable_newRandomDSQuery(\n                QUERY_EXECUTION_DELAY,\n                NUM_RANDOM_BYTES_REQUESTED,\n                GAS_FOR_CALLBACK\n            );\n\n        pendingBets[queryId] = msg.sender;\n\n        emit LogNewProvableQuery(\n            \"Provable query was sent, standing by for the answer...\",\n            msg.sender\n        );\n    }\n\n    function __callback(\n        bytes32 _myid,\n        string memory _result,\n        bytes memory _proof\n    ) public {\n        require(msg.sender == provable_cbAddress());\n        require(\n            provable_randomDS_proofVerify__returnCode(\n                _myid,\n                _result,\n                _proof\n            ) == 0,\n            \"Call not coming from the oracle\"\n        );\n\n        uint256 randomNumber = uint256(keccak256(abi.encodePacked(_result))) % 2;\n\n        result = closedBet(_myid, randomNumber);\n\n        emit generateRandomNumber(randomNumber);\n    }\n\n    function closedBet(bytes32 _id, uint256 _result) internal returns (bool) {\n        address player = pendingBets[_id];\n        bool win = false;\n\n        if(betters[player].betChoice == _result) {\n            win = true;\n            betters[player].balance += betters[player].betAmount * 2;\n            balance -= betters[player].betAmount;\n        } else {\n            balance += betters[player].betAmount;\n        }\n\n        emit ClosedBet(_id, player, betters[player].betChoice, win, betters[player].betAmount);\n\n        betters[player].isWaiting = false;\n        delete pendingBets[_id];\n        \n        return win;\n    }\n\n    function getPlayerBalance(address _player) public view returns (uint256) {\n        return betters[_player].balance;\n    }\n\n    function deposit() public payable returns (uint256) {\n        balance += msg.value;\n\n        emit OccuredDeposit(msg.sender, msg.value);\n\n        return msg.value;\n    }\n\n    function withdrawFunds() public {\n        require(msg.sender != address(0), \"not exist address\");\n        require(betters[msg.sender].balance > 0, \"Not enough funds to withdraw\");\n        require(betters[msg.sender].isWaiting == false, \"this address still has an open bet\");\n\n        uint256 amount = betters[msg.sender].balance;\n        msg.sender.transfer(amount);\n\n        delete (betters[msg.sender]);\n\n        emit WithdrawnFundsFromPlayer(msg.sender, amount, balance);\n    }\n}\n",
  "sourcePath": "/Users/aoikurokawa/Documents/Blockchain/Ethereum/eth_coinflip/eth_CoinFlip/contracts/CoinFlip.sol",
  "compiler": {
    "name": "solc",
    "version": "0.5.12+commit.7709ece9.Emscripten.clang"
  },
  "schemaVersion": "3.3.4",
  "updatedAt": "2021-02-28T06:30:07.270Z",
  "networkType": "ethereum",
  "devdoc": {
    "methods": {
      "__callback(bytes32,string)": {
        "details": "The following `__callback` functions are just placeholders ideally     meant to be defined in child contract when proofs are used.     The function bodies simply silence compiler warnings."
      }
    }
  },
  "userdoc": {
    "methods": {}
  }
}