{
  "contractName": "CoinFlip",
  "abi": [
    {
      "inputs": [],
      "payable": false,
      "stateMutability": "nonpayable",
      "type": "constructor"
    },
    {
      "anonymous": false,
      "inputs": [
        {
          "indexed": false,
          "internalType": "bool",
          "name": "win",
          "type": "bool"
        }
      ],
      "name": "betWin",
      "type": "event"
    },
    {
      "constant": true,
      "inputs": [],
      "name": "balance",
      "outputs": [
        {
          "internalType": "uint256",
          "name": "",
          "type": "uint256"
        }
      ],
      "payable": false,
      "stateMutability": "view",
      "type": "function"
    },
    {
      "constant": false,
      "inputs": [],
      "name": "bet",
      "outputs": [],
      "payable": true,
      "stateMutability": "payable",
      "type": "function"
    },
    {
      "constant": true,
      "inputs": [],
      "name": "_random",
      "outputs": [
        {
          "internalType": "uint256",
          "name": "",
          "type": "uint256"
        }
      ],
      "payable": false,
      "stateMutability": "view",
      "type": "function"
    }
  ],
  "bytecode": "0x608060405234801561001057600080fd5b50336000806101000a81548173ffffffffffffffffffffffffffffffffffffffff021916908373ffffffffffffffffffffffffffffffffffffffff16021790555061027c806100606000396000f3fe6080604052600436106100345760003560e01c806306748fb11461003957806311610c2514610064578063b69ef8a81461006e575b600080fd5b34801561004557600080fd5b5061004e610099565b6040518082815260200191505060405180910390f35b61006c6100ab565b005b34801561007a57600080fd5b50610083610213565b6040518082815260200191505060405180910390f35b6000600242816100a557fe5b06905090565b6000809054906101000a900473ffffffffffffffffffffffffffffffffffffffff1673ffffffffffffffffffffffffffffffffffffffff163373ffffffffffffffffffffffffffffffffffffffff161461016d576040517f08c379a00000000000000000000000000000000000000000000000000000000081526004018080602001828103825260138152602001807f43616c6c6572206973206e6f74206f776e65720000000000000000000000000081525060200191505060405180910390fd5b6000610177610099565b905060008114156101cb577f56cce341e194f93a617b3d7b3cda0c55d38e0a94d0aa7d6952e6b2cdcf9bf2286000604051808215151515815260200191505060405180910390a16101c6610219565b610210565b7f56cce341e194f93a617b3d7b3cda0c55d38e0a94d0aa7d6952e6b2cdcf9bf2286001604051808215151515815260200191505060405180910390a161020f610231565b5b50565b60015481565b60003490508060016000828254039250508190555050565b600034905060028102600154016001819055505056fea265627a7a723158207753ce256de649c7c1e9f0cf520f953487b46c8823e332223cfe6495a266d17764736f6c63430005100032",
  "source": "// SPDX-License-Identifier: MIT\npragma solidity >=0.4.22 <0.9.0;\n\ncontract CoinFlip {\n    event betWin(bool win);\n\n    modifier isOwner() {\n        require(msg.sender == owner, \"Caller is not owner\");\n        _;\n    }\n\n    address owner;\n\n    uint256 public balance;\n\n    constructor() public{\n        owner = msg.sender;\n    }\n\n    function bet() public payable isOwner {\n        uint256 randomNumber = _random();\n        if (randomNumber == 0) {\n            emit betWin(false);\n            _lose();\n        } else {\n            emit betWin(true);\n            _win();\n        }\n    }\n\n    function _random() public view returns (uint256) {\n        return block.timestamp % 2;\n    }\n\n    function _win() private {\n        uint256 betPrice = msg.value;\n        balance = balance + betPrice * 2;\n    }\n\n    function _lose() private {\n        uint256 betPrice = msg.value;\n        balance -= betPrice;\n    }\n}\n",
  "sourcePath": "/Users/aoikurokawa/Documents/Blockchain/Ethereum/eth_coinflip/eth_CoinFlip/contracts/CoinFlip.sol",
  "compiler": {
    "name": "solc",
    "version": "0.5.16+commit.9c3226ce.Emscripten.clang"
  },
  "schemaVersion": "3.3.4",
  "updatedAt": "2021-02-24T06:34:31.906Z",
  "networkType": "ethereum",
  "devdoc": {
    "methods": {}
  },
  "userdoc": {
    "methods": {}
  }
}