{
  "contractName": "CoinFlip",
  "abi": [
    {
      "inputs": [],
      "payable": true,
      "stateMutability": "payable",
      "type": "constructor"
    },
    {
      "anonymous": false,
      "inputs": [
        {
          "indexed": false,
          "internalType": "bytes32",
          "name": "betId",
          "type": "bytes32"
        },
        {
          "indexed": false,
          "internalType": "address",
          "name": "player",
          "type": "address"
        },
        {
          "indexed": false,
          "internalType": "uint256",
          "name": "choice",
          "type": "uint256"
        },
        {
          "indexed": false,
          "internalType": "bool",
          "name": "victory",
          "type": "bool"
        },
        {
          "indexed": false,
          "internalType": "uint256",
          "name": "amount",
          "type": "uint256"
        }
      ],
      "name": "ClosedBet",
      "type": "event"
    },
    {
      "anonymous": false,
      "inputs": [
        {
          "indexed": false,
          "internalType": "string",
          "name": "description",
          "type": "string"
        },
        {
          "indexed": false,
          "internalType": "address",
          "name": "sender",
          "type": "address"
        }
      ],
      "name": "LogNewProvableQuery",
      "type": "event"
    },
    {
      "anonymous": false,
      "inputs": [
        {
          "indexed": false,
          "internalType": "address",
          "name": "",
          "type": "address"
        },
        {
          "indexed": false,
          "internalType": "uint256",
          "name": "",
          "type": "uint256"
        }
      ],
      "name": "OccuredDeposit",
      "type": "event"
    },
    {
      "anonymous": false,
      "inputs": [
        {
          "indexed": false,
          "internalType": "address",
          "name": "player",
          "type": "address"
        },
        {
          "indexed": false,
          "internalType": "uint256",
          "name": "amount",
          "type": "uint256"
        },
        {
          "indexed": false,
          "internalType": "uint256",
          "name": "contractBalance",
          "type": "uint256"
        }
      ],
      "name": "WithdrawnFundsFromPlayer",
      "type": "event"
    },
    {
      "anonymous": false,
      "inputs": [
        {
          "indexed": false,
          "internalType": "uint256",
          "name": "randomNumber",
          "type": "uint256"
        }
      ],
      "name": "generateRandomNumber",
      "type": "event"
    },
    {
      "constant": true,
      "inputs": [],
      "name": "balance",
      "outputs": [
        {
          "internalType": "uint256",
          "name": "",
          "type": "uint256"
        }
      ],
      "payable": false,
      "stateMutability": "view",
      "type": "function"
    },
    {
      "constant": true,
      "inputs": [
        {
          "internalType": "address",
          "name": "",
          "type": "address"
        }
      ],
      "name": "betters",
      "outputs": [
        {
          "internalType": "uint256",
          "name": "balance",
          "type": "uint256"
        },
        {
          "internalType": "uint256",
          "name": "betAmount",
          "type": "uint256"
        },
        {
          "internalType": "uint256",
          "name": "betChoice",
          "type": "uint256"
        },
        {
          "internalType": "bool",
          "name": "isWaiting",
          "type": "bool"
        }
      ],
      "payable": false,
      "stateMutability": "view",
      "type": "function"
    },
    {
      "constant": true,
      "inputs": [],
      "name": "latetstNumber",
      "outputs": [
        {
          "internalType": "uint256",
          "name": "",
          "type": "uint256"
        }
      ],
      "payable": false,
      "stateMutability": "view",
      "type": "function"
    },
    {
      "constant": true,
      "inputs": [],
      "name": "minimumBetNumber",
      "outputs": [
        {
          "internalType": "uint256",
          "name": "",
          "type": "uint256"
        }
      ],
      "payable": false,
      "stateMutability": "view",
      "type": "function"
    },
    {
      "constant": true,
      "inputs": [
        {
          "internalType": "bytes32",
          "name": "",
          "type": "bytes32"
        }
      ],
      "name": "pendingBets",
      "outputs": [
        {
          "internalType": "address",
          "name": "",
          "type": "address"
        }
      ],
      "payable": false,
      "stateMutability": "view",
      "type": "function"
    },
    {
      "constant": false,
      "inputs": [
        {
          "internalType": "uint256",
          "name": "_choice",
          "type": "uint256"
        }
      ],
      "name": "bet",
      "outputs": [],
      "payable": true,
      "stateMutability": "payable",
      "type": "function"
    },
    {
      "constant": false,
      "inputs": [
        {
          "internalType": "bytes32",
          "name": "_myid",
          "type": "bytes32"
        },
        {
          "internalType": "string",
          "name": "_result",
          "type": "string"
        }
      ],
      "name": "__callback",
      "outputs": [],
      "payable": false,
      "stateMutability": "nonpayable",
      "type": "function"
    },
    {
      "constant": false,
      "inputs": [
        {
          "internalType": "bytes32",
          "name": "_myid",
          "type": "bytes32"
        },
        {
          "internalType": "string",
          "name": "_result",
          "type": "string"
        },
        {
          "internalType": "bytes",
          "name": "_proof",
          "type": "bytes"
        }
      ],
      "name": "__callback",
      "outputs": [],
      "payable": false,
      "stateMutability": "nonpayable",
      "type": "function"
    },
    {
      "constant": true,
      "inputs": [
        {
          "internalType": "address",
          "name": "_player",
          "type": "address"
        }
      ],
      "name": "getPlayerBalance",
      "outputs": [
        {
          "internalType": "uint256",
          "name": "",
          "type": "uint256"
        }
      ],
      "payable": false,
      "stateMutability": "view",
      "type": "function"
    },
    {
      "constant": false,
      "inputs": [],
      "name": "deposit",
      "outputs": [
        {
          "internalType": "uint256",
          "name": "",
          "type": "uint256"
        }
      ],
      "payable": true,
      "stateMutability": "payable",
      "type": "function"
    },
    {
      "constant": false,
      "inputs": [],
      "name": "withdrawFunds",
      "outputs": [],
      "payable": false,
      "stateMutability": "nonpayable",
      "type": "function"
    }
  ],
  "bytecode": "0x608060405262000019603060f81b6200003460201b60201c565b34600581905550662386f26fc1000060068190555062000a55565b600073ffffffffffffffffffffffffffffffffffffffff16600160009054906101000a900473ffffffffffffffffffffffffffffffffffffffff1673ffffffffffffffffffffffffffffffffffffffff161480620000c457506000620000c2600160009054906101000a900473ffffffffffffffffffffffffffffffffffffffff166200039760201b60201c565b145b15620000de57620000dc6000620003a260201b60201c565b505b600160009054906101000a900473ffffffffffffffffffffffffffffffffffffffff1673ffffffffffffffffffffffffffffffffffffffff166338cc48316040518163ffffffff1660e01b8152600401602060405180830381600087803b1580156200014957600080fd5b505af11580156200015e573d6000803e3d6000fd5b505050506040513d60208110156200017557600080fd5b810190808051906020019092919050505073ffffffffffffffffffffffffffffffffffffffff166000809054906101000a900473ffffffffffffffffffffffffffffffffffffffff1673ffffffffffffffffffffffffffffffffffffffff1614620002c257600160009054906101000a900473ffffffffffffffffffffffffffffffffffffffff1673ffffffffffffffffffffffffffffffffffffffff166338cc48316040518163ffffffff1660e01b8152600401602060405180830381600087803b1580156200024557600080fd5b505af11580156200025a573d6000803e3d6000fd5b505050506040513d60208110156200027157600080fd5b81019080805190602001909291905050506000806101000a81548173ffffffffffffffffffffffffffffffffffffffff021916908373ffffffffffffffffffffffffffffffffffffffff1602179055505b6000809054906101000a900473ffffffffffffffffffffffffffffffffffffffff1673ffffffffffffffffffffffffffffffffffffffff1663688dcfd7826040518263ffffffff1660e01b815260040180827effffffffffffffffffffffffffffffffffffffffffffffffffffffffffffff19167effffffffffffffffffffffffffffffffffffffffffffffffffffffffffffff19168152602001915050600060405180830381600087803b1580156200037b57600080fd5b505af115801562000390573d6000803e3d6000fd5b5050505050565b6000813b9050919050565b6000620003b4620003bb60201b60201c565b9050919050565b600080620003e3731d3b2638a7cc9f2cb3d298a3da7a90b67e5506ed6200039760201b60201c565b11156200048f57731d3b2638a7cc9f2cb3d298a3da7a90b67e5506ed600160006101000a81548173ffffffffffffffffffffffffffffffffffffffff021916908373ffffffffffffffffffffffffffffffffffffffff160217905550620004856040518060400160405280600b81526020017f6574685f6d61696e6e65740000000000000000000000000000000000000000008152506200098a60201b60201c565b6001905062000987565b6000620004b673c03a2615d5efaf5f49f60b7bb6583eaec212fdf16200039760201b60201c565b1115620005625773c03a2615d5efaf5f49f60b7bb6583eaec212fdf1600160006101000a81548173ffffffffffffffffffffffffffffffffffffffff021916908373ffffffffffffffffffffffffffffffffffffffff160217905550620005586040518060400160405280600c81526020017f6574685f726f707374656e3300000000000000000000000000000000000000008152506200098a60201b60201c565b6001905062000987565b60006200058973b7a07bcf2ba2f2703b24c0691b5278999c59ac7e6200039760201b60201c565b1115620006355773b7a07bcf2ba2f2703b24c0691b5278999c59ac7e600160006101000a81548173ffffffffffffffffffffffffffffffffffffffff021916908373ffffffffffffffffffffffffffffffffffffffff1602179055506200062b6040518060400160405280600981526020017f6574685f6b6f76616e00000000000000000000000000000000000000000000008152506200098a60201b60201c565b6001905062000987565b60006200065c73146500cfd35b22e4a392fe0adc06de1a1368ed486200039760201b60201c565b1115620007085773146500cfd35b22e4a392fe0adc06de1a1368ed48600160006101000a81548173ffffffffffffffffffffffffffffffffffffffff021916908373ffffffffffffffffffffffffffffffffffffffff160217905550620006fe6040518060400160405280600b81526020017f6574685f72696e6b6562790000000000000000000000000000000000000000008152506200098a60201b60201c565b6001905062000987565b60006200072f73a2998efd205fb9d4b4963afb70778d6354ad3a416200039760201b60201c565b1115620007db5773a2998efd205fb9d4b4963afb70778d6354ad3a41600160006101000a81548173ffffffffffffffffffffffffffffffffffffffff021916908373ffffffffffffffffffffffffffffffffffffffff160217905550620007d16040518060400160405280600a81526020017f6574685f676f65726c69000000000000000000000000000000000000000000008152506200098a60201b60201c565b6001905062000987565b600062000802736f485c8bf6fc43ea212e93bbf8ce046c7f1cb4756200039760201b60201c565b11156200086857736f485c8bf6fc43ea212e93bbf8ce046c7f1cb475600160006101000a81548173ffffffffffffffffffffffffffffffffffffffff021916908373ffffffffffffffffffffffffffffffffffffffff1602179055506001905062000987565b60006200088f7320e12a1f859b3feae5fb2a0a32c18f5a65555bbf6200039760201b60201c565b1115620008f5577320e12a1f859b3feae5fb2a0a32c18f5a65555bbf600160006101000a81548173ffffffffffffffffffffffffffffffffffffffff021916908373ffffffffffffffffffffffffffffffffffffffff1602179055506001905062000987565b60006200091c7351efaf4c8b3c9afbd5ab9f4bbc82784ab6ef8faa6200039760201b60201c565b111562000982577351efaf4c8b3c9afbd5ab9f4bbc82784ab6ef8faa600160006101000a81548173ffffffffffffffffffffffffffffffffffffffff021916908373ffffffffffffffffffffffffffffffffffffffff1602179055506001905062000987565b600090505b90565b8060029080519060200190620009a2929190620009a6565b5050565b828054600181600116156101000203166002900490600052602060002090601f016020900481019282601f10620009e957805160ff191683800117855562000a1a565b8280016001018555821562000a1a579182015b8281111562000a19578251825591602001919060010190620009fc565b5b50905062000a29919062000a2d565b5090565b62000a5291905b8082111562000a4e57600081600090555060010162000a34565b5090565b90565b6143128062000a656000396000f3fe60806040526004361061009c5760003560e01c8063818a04ff11610064578063818a04ff1461034c578063aeee1f88146103c7578063b69ef8a814610445578063d0e30db014610470578063dac4f7661461048e578063e2734c93146104b95761009c565b8063227377ec146100a157806324600fc3146100cc57806327dc297e146100e357806338bbfa50146101b55780637365870b1461031e575b600080fd5b3480156100ad57600080fd5b506100b661051e565b6040518082815260200191505060405180910390f35b3480156100d857600080fd5b506100e1610524565b005b3480156100ef57600080fd5b506101b36004803603604081101561010657600080fd5b81019080803590602001909291908035906020019064010000000081111561012d57600080fd5b82018360208201111561013f57600080fd5b8035906020019184600183028401116401000000008311171561016157600080fd5b91908080601f016020809104026020016040519081016040528093929190818152602001838380828437600081840152601f19601f82011690508083019250505050505050919291929050505061089f565b005b3480156101c157600080fd5b5061031c600480360360608110156101d857600080fd5b8101908080359060200190929190803590602001906401000000008111156101ff57600080fd5b82018360208201111561021157600080fd5b8035906020019184600183028401116401000000008311171561023357600080fd5b91908080601f016020809104026020016040519081016040528093929190818152602001838380828437600081840152601f19601f8201169050808301925050505050505091929192908035906020019064010000000081111561029657600080fd5b8201836020820111156102a857600080fd5b803590602001918460018302840111640100000000831117156102ca57600080fd5b91908080601f016020809104026020016040519081016040528093929190818152602001838380828437600081840152601f19601f8201169050808301925050505050505091929192905050506108e2565b005b61034a6004803603602081101561033457600080fd5b8101908080359060200190929190505050610a6f565b005b34801561035857600080fd5b506103856004803603602081101561036f57600080fd5b8101908080359060200190929190505050610d3c565b604051808273ffffffffffffffffffffffffffffffffffffffff1673ffffffffffffffffffffffffffffffffffffffff16815260200191505060405180910390f35b3480156103d357600080fd5b50610416600480360360208110156103ea57600080fd5b81019080803573ffffffffffffffffffffffffffffffffffffffff169060200190929190505050610d6f565b604051808581526020018481526020018381526020018215151515815260200194505050505060405180910390f35b34801561045157600080fd5b5061045a610dac565b6040518082815260200191505060405180910390f35b610478610db2565b6040518082815260200191505060405180910390f35b34801561049a57600080fd5b506104a3610e35565b6040518082815260200191505060405180910390f35b3480156104c557600080fd5b50610508600480360360208110156104dc57600080fd5b81019080803573ffffffffffffffffffffffffffffffffffffffff169060200190929190505050610e3b565b6040518082815260200191505060405180910390f35b60075481565b600073ffffffffffffffffffffffffffffffffffffffff163373ffffffffffffffffffffffffffffffffffffffff1614156105c7576040517f08c379a00000000000000000000000000000000000000000000000000000000081526004018080602001828103825260118152602001807f6e6f74206578697374206164647265737300000000000000000000000000000081525060200191505060405180910390fd5b6000600860003373ffffffffffffffffffffffffffffffffffffffff1673ffffffffffffffffffffffffffffffffffffffff168152602001908152602001600020600001541161067f576040517f08c379a000000000000000000000000000000000000000000000000000000000815260040180806020018281038252601c8152602001807f4e6f7420656e6f7567682066756e647320746f2077697468647261770000000081525060200191505060405180910390fd5b60001515600860003373ffffffffffffffffffffffffffffffffffffffff1673ffffffffffffffffffffffffffffffffffffffff16815260200190815260200160002060030160009054906101000a900460ff1615151461072b576040517f08c379a00000000000000000000000000000000000000000000000000000000081526004018080602001828103825260228152602001806142006022913960400191505060405180910390fd5b6000600860003373ffffffffffffffffffffffffffffffffffffffff1673ffffffffffffffffffffffffffffffffffffffff1681526020019081526020016000206000015490503373ffffffffffffffffffffffffffffffffffffffff166108fc829081150290604051600060405180830381858888f193505050501580156107b8573d6000803e3d6000fd5b50600860003373ffffffffffffffffffffffffffffffffffffffff1673ffffffffffffffffffffffffffffffffffffffff168152602001908152602001600020600080820160009055600182016000905560028201600090556003820160006101000a81549060ff021916905550507ff43f927450eaf602c442487ab0063985c11e0da34de2d5953d7c96edf97f57d73382600554604051808473ffffffffffffffffffffffffffffffffffffffff1673ffffffffffffffffffffffffffffffffffffffff168152602001838152602001828152602001935050505060405180910390a150565b6108de828260006040519080825280601f01601f1916602001820160405280156108d85781602001600182028038833980820191505090505b506108e2565b5050565b6108ea610e87565b73ffffffffffffffffffffffffffffffffffffffff163373ffffffffffffffffffffffffffffffffffffffff161461092157600080fd5b600061092e8484846111a4565b60ff16146109a4576040517f08c379a000000000000000000000000000000000000000000000000000000000815260040180806020018281038252601f8152602001807f43616c6c206e6f7420636f6d696e672066726f6d20746865206f7261636c650081525060200191505060405180910390fd5b60006002836040516020018082805190602001908083835b602083106109df57805182526020820191506020810190506020830392506109bc565b6001836020036101000a0380198251168184511680821785525050505050509050019150506040516020818303038152906040528051906020012060001c81610a2457fe5b069050610a3184826112d4565b507f4303707e98d7b86c6197a2b41914fc650bc708c7d3111930f2ec8ee7cf1cf394816040518082815260200191505060405180910390a150505050565b600654341015610ae7576040517f08c379a00000000000000000000000000000000000000000000000000000000081526004018080602001828103825260118152602001807f4e6f7420656e6f75676820616d6f756e7400000000000000000000000000000081525060200191505060405180910390fd5b600554341115610b42576040517f08c379a00000000000000000000000000000000000000000000000000000000081526004018080602001828103825260318152602001806141cf6031913960400191505060405180910390fd5b60001515600860003373ffffffffffffffffffffffffffffffffffffffff1673ffffffffffffffffffffffffffffffffffffffff16815260200190815260200160002060030160009054906101000a900460ff16151514610bee576040517f08c379a00000000000000000000000000000000000000000000000000000000081526004018080602001828103825260228152602001806142bc6022913960400191505060405180910390fd5b6001811115610c48576040517f08c379a00000000000000000000000000000000000000000000000000000000081526004018080602001828103825260248152602001806142626024913960400191505060405180910390fd5b6001600860003373ffffffffffffffffffffffffffffffffffffffff1673ffffffffffffffffffffffffffffffffffffffff16815260200190815260200160002060030160006101000a81548160ff02191690831515021790555034600860003373ffffffffffffffffffffffffffffffffffffffff1673ffffffffffffffffffffffffffffffffffffffff1681526020019081526020016000206001018190555080600860003373ffffffffffffffffffffffffffffffffffffffff1673ffffffffffffffffffffffffffffffffffffffff16815260200190815260200160002060020181905550610d39611646565b50565b60096020528060005260406000206000915054906101000a900473ffffffffffffffffffffffffffffffffffffffff1681565b60086020528060005260406000206000915090508060000154908060010154908060020154908060030160009054906101000a900460ff16905084565b60055481565b6000346005600082825401925050819055507fad94e437ad4db10917caa6e4060475c768bc8f8a74a593a048ec0f086029486a3334604051808373ffffffffffffffffffffffffffffffffffffffff1673ffffffffffffffffffffffffffffffffffffffff1681526020018281526020019250505060405180910390a134905090565b60065481565b6000600860008373ffffffffffffffffffffffffffffffffffffffff1673ffffffffffffffffffffffffffffffffffffffff168152602001908152602001600020600001549050919050565b60008073ffffffffffffffffffffffffffffffffffffffff16600160009054906101000a900473ffffffffffffffffffffffffffffffffffffffff1673ffffffffffffffffffffffffffffffffffffffff161480610f0f57506000610f0d600160009054906101000a900473ffffffffffffffffffffffffffffffffffffffff16611739565b145b15610f2057610f1e6000611744565b505b600160009054906101000a900473ffffffffffffffffffffffffffffffffffffffff1673ffffffffffffffffffffffffffffffffffffffff166338cc48316040518163ffffffff1660e01b8152600401602060405180830381600087803b158015610f8a57600080fd5b505af1158015610f9e573d6000803e3d6000fd5b505050506040513d6020811015610fb457600080fd5b810190808051906020019092919050505073ffffffffffffffffffffffffffffffffffffffff166000809054906101000a900473ffffffffffffffffffffffffffffffffffffffff1673ffffffffffffffffffffffffffffffffffffffff16146110fd57600160009054906101000a900473ffffffffffffffffffffffffffffffffffffffff1673ffffffffffffffffffffffffffffffffffffffff166338cc48316040518163ffffffff1660e01b8152600401602060405180830381600087803b15801561108257600080fd5b505af1158015611096573d6000803e3d6000fd5b505050506040513d60208110156110ac57600080fd5b81019080805190602001909291905050506000806101000a81548173ffffffffffffffffffffffffffffffffffffffff021916908373ffffffffffffffffffffffffffffffffffffffff1602179055505b6000809054906101000a900473ffffffffffffffffffffffffffffffffffffffff1673ffffffffffffffffffffffffffffffffffffffff1663c281d19e6040518163ffffffff1660e01b815260040160206040518083038186803b15801561116457600080fd5b505afa158015611178573d6000803e3d6000fd5b505050506040513d602081101561118e57600080fd5b8101908080519060200190929190505050905090565b60007f4c00000000000000000000000000000000000000000000000000000000000000826000815181106111d457fe5b602001015160f81c60f81b7effffffffffffffffffffffffffffffffffffffffffffffffffffffffffffff191614158061126757507f50000000000000000000000000000000000000000000000000000000000000008260018151811061123757fe5b602001015160f81c60f81b7effffffffffffffffffffffffffffffffffffffffffffffffffffffffffffff191614155b806112935750600160ff168260028151811061127f57fe5b602001015160f81c60f81b60f81c60ff1614155b156112a157600190506112cd565b60006112b68386866112b1611755565b6117f7565b9050806112c75760029150506112cd565b60009150505b9392505050565b6000806009600085815260200190815260200160002060009054906101000a900473ffffffffffffffffffffffffffffffffffffffff169050600080905083600860008473ffffffffffffffffffffffffffffffffffffffff1673ffffffffffffffffffffffffffffffffffffffff16815260200190815260200160002060020154141561144c57600190506002600860008473ffffffffffffffffffffffffffffffffffffffff1673ffffffffffffffffffffffffffffffffffffffff1681526020019081526020016000206001015402600860008473ffffffffffffffffffffffffffffffffffffffff1673ffffffffffffffffffffffffffffffffffffffff16815260200190815260200160002060000160008282540192505081905550600860008373ffffffffffffffffffffffffffffffffffffffff1673ffffffffffffffffffffffffffffffffffffffff1681526020019081526020016000206001015460056000828254039250508190555061149f565b600860008373ffffffffffffffffffffffffffffffffffffffff1673ffffffffffffffffffffffffffffffffffffffff168152602001908152602001600020600101546005600082825401925050819055505b7fe77c0826e58a07f069a0181661e9222935a3077308a0c9077d18275c117135c28583600860008673ffffffffffffffffffffffffffffffffffffffff1673ffffffffffffffffffffffffffffffffffffffff1681526020019081526020016000206002015484600860008873ffffffffffffffffffffffffffffffffffffffff1673ffffffffffffffffffffffffffffffffffffffff16815260200190815260200160002060010154604051808681526020018573ffffffffffffffffffffffffffffffffffffffff1673ffffffffffffffffffffffffffffffffffffffff168152602001848152602001831515151581526020018281526020019550505050505060405180910390a16000600860008473ffffffffffffffffffffffffffffffffffffffff1673ffffffffffffffffffffffffffffffffffffffff16815260200190815260200160002060030160006101000a81548160ff0219169083151502179055506009600086815260200190815260200160002060006101000a81549073ffffffffffffffffffffffffffffffffffffffff0219169055809250505092915050565b6000809050600062030d409050600061166183600184611ea2565b9050336009600083815260200190815260200160002060006101000a81548173ffffffffffffffffffffffffffffffffffffffff021916908373ffffffffffffffffffffffffffffffffffffffff1602179055507fb1a7310b1a46c788fcf30784cad70442d5232acaef480b0c094c76bee8d9c77d3360405180806020018373ffffffffffffffffffffffffffffffffffffffff1673ffffffffffffffffffffffffffffffffffffffff16815260200182810382526036815260200180614286603691396040019250505060405180910390a1505050565b6000813b9050919050565b600061174e61243d565b9050919050565b606060028054600181600116156101000203166002900480601f0160208091040260200160405190810160405280929190818152602001828054600181600116156101000203166002900480156117ed5780601f106117c2576101008083540402835291602001916117ed565b820191906000526020600020905b8154815290600101906020018083116117d057829003601f168201915b5050505050905090565b600080602060028760458151811061180b57fe5b602001015160f81c60f81b60f81c60ff1601604401019050606060206040519080825280601f01601f1916602001820160405280156118595781602001600182028038833980820191505090505b50905061186b87836020846000612994565b50600284876040516020018083805190602001908083835b602083106118a65780518252602082019150602081019050602083039250611883565b6001836020036101000a038019825116818451168082178552505050505050905001828152602001925050506040516020818303038152906040526040518082805190602001908083835b6020831061191457805182526020820191506020810190506020830392506118f1565b6001836020036101000a038019825116818451168082178552505050505050905001915050602060405180830381855afa158015611956573d6000803e3d6000fd5b5050506040513d602081101561196b57600080fd5b810190808051906020019092919050505060405160200180828152602001915050604051602081830303815290604052805190602001208180519060200120146119ba57600092505050611e9a565b606060028860016049860101815181106119d057fe5b602001015160f81c60f81b60f81c60ff16016040519080825280601f01601f191660200182016040528015611a145781602001600182028038833980820191505090505b509050611a2988604985018351846000612994565b50611af46002826040518082805190602001908083835b60208310611a635780518252602082019150602081019050602083039250611a40565b6001836020036101000a038019825116818451168082178552505050505050905001915050602060405180830381855afa158015611aa5573d6000803e3d6000fd5b5050506040513d6020811015611aba57600080fd5b8101908080519060200190929190505050878a6008602088010181518110611ade57fe5b602001015160f81c60f81b60f81c60ff166129f3565b611b045760009350505050611e9a565b606060296040519080825280601f01601f191660200182016040528015611b3a5781602001600182028038833980820191505090505b509050611b4f89602086016029846000612994565b506060604080519080825280601f01601f191660200182016040528015611b855781602001600182028038833980820191505090505b5090506000604184516029602089010101019050611bab8b604083036040856000612994565b5060006002836040518082805190602001908083835b60208310611be45780518252602082019150602081019050602083039250611bc1565b6001836020036101000a038019825116818451168082178552505050505050905001915050602060405180830381855afa158015611c26573d6000803e3d6000fd5b5050506040513d6020811015611c3b57600080fd5b8101908080519060200190929190505050905083816040516020018083805190602001908083835b60208310611c865780518252602082019150602081019050602083039250611c63565b6001836020036101000a0380198251168184511680821785525050505050509050018281526020019250505060405160208183030381529060405280519060200120600360008d8152602001908152602001600020541415611cfe57600360008c815260200190815260200160002060009055611d0e565b6000975050505050505050611e9a565b606060496040519080825280601f01601f191660200182016040528015611d445781602001600182028038833980820191505090505b509050611d568d896049846000612994565b50611dff6002826040518082805190602001908083835b60208310611d905780518252602082019150602081019050602083039250611d6d565b6001836020036101000a038019825116818451168082178552505050505050905001915050602060405180830381855afa158015611dd2573d6000803e3d6000fd5b5050506040513d6020811015611de757600080fd5b81019080805190602001909291905050508786612aa3565b611e1457600098505050505050505050611e9a565b6004600083815260200190815260200160002060009054906101000a900460ff16611e6e57611e438d84612c61565b6004600084815260200190815260200160002060006101000a81548160ff0219169083151502179055505b6004600083815260200190815260200160002060009054906101000a900460ff16985050505050505050505b949350505050565b60008083118015611eb4575060208311155b611ebd57600080fd5b600a84029350606060016040519080825280601f01601f191660200182016040528015611ef95781602001600182028038833980820191505090505b5090508360f81b81600081518110611f0d57fe5b60200101907effffffffffffffffffffffffffffffffffffffffffffffffffffffffffffff1916908160001a905350606060206040519080825280601f01601f191660200182016040528015611f725781602001600182028038833980820191505090505b509050606060206040519080825280601f01601f191660200182016040528015611fab5781602001600182028038833980820191505090505b5090506000611fb8613079565b905060208352424118600143034018602084015260208252806020830152606060206040519080825280601f01601f19166020018201604052801561200c5781602001600182028038833980820191505090505b509050886020820152606060086040519080825280601f01601f19166020018201604052801561204b5781602001600182028038833980820191505090505b50905061205e8260186008846000612994565b506120676140e8565b604051806080016040528087815260200188815260200186815260200184815250905060006120cc6040518060400160405280600681526020017f72616e646f6d0000000000000000000000000000000000000000000000000000815250838c613396565b9050606060086040519080825280601f01601f1916602001820160405280156121045781602001600182028038833980820191505090505b50905060208401517f0100000000000000000000000000000000000000000000000000000000000000810460278301537e01000000000000000000000000000000000000000000000000000000000000810460268301537d010000000000000000000000000000000000000000000000000000000000810460258301537c0100000000000000000000000000000000000000000000000000000000810460248301537b01000000000000000000000000000000000000000000000000000000810460238301537a01000000000000000000000000000000000000000000000000000081046022830153790100000000000000000000000000000000000000000000000000810460218301537801000000000000000000000000000000000000000000000000810460208301535061242a82828560016004811061224357fe5b602002015160028760006004811061225757fe5b60200201516040518082805190602001908083835b6020831061228f578051825260208201915060208101905060208303925061226c565b6001836020036101000a038019825116818451168082178552505050505050905001915050602060405180830381855afa1580156122d1573d6000803e3d6000fd5b5050506040513d60208110156122e657600080fd5b81019080805190602001909291905050508760026004811061230457fe5b60200201516040516020018085805190602001908083835b6020831061233f578051825260208201915060208101905060208303925061231c565b6001836020036101000a03801982511681845116808217855250505050505090500184805190602001908083835b60208310612390578051825260208201915060208101905060208303925061236d565b6001836020036101000a03801982511681845116808217855250505050505090500183815260200182805190602001908083835b602083106123e757805182526020820191506020810190506020830392506123c4565b6001836020036101000a03801982511681845116808217855250505050505090500194505050505060405160208183030381529060405280519060200120613703565b8199505050505050505050509392505050565b60008061245d731d3b2638a7cc9f2cb3d298a3da7a90b67e5506ed611739565b11156124ff57731d3b2638a7cc9f2cb3d298a3da7a90b67e5506ed600160006101000a81548173ffffffffffffffffffffffffffffffffffffffff021916908373ffffffffffffffffffffffffffffffffffffffff1602179055506124f66040518060400160405280600b81526020017f6574685f6d61696e6e657400000000000000000000000000000000000000000081525061371f565b60019050612991565b600061251e73c03a2615d5efaf5f49f60b7bb6583eaec212fdf1611739565b11156125c05773c03a2615d5efaf5f49f60b7bb6583eaec212fdf1600160006101000a81548173ffffffffffffffffffffffffffffffffffffffff021916908373ffffffffffffffffffffffffffffffffffffffff1602179055506125b76040518060400160405280600c81526020017f6574685f726f707374656e33000000000000000000000000000000000000000081525061371f565b60019050612991565b60006125df73b7a07bcf2ba2f2703b24c0691b5278999c59ac7e611739565b11156126815773b7a07bcf2ba2f2703b24c0691b5278999c59ac7e600160006101000a81548173ffffffffffffffffffffffffffffffffffffffff021916908373ffffffffffffffffffffffffffffffffffffffff1602179055506126786040518060400160405280600981526020017f6574685f6b6f76616e000000000000000000000000000000000000000000000081525061371f565b60019050612991565b60006126a073146500cfd35b22e4a392fe0adc06de1a1368ed48611739565b11156127425773146500cfd35b22e4a392fe0adc06de1a1368ed48600160006101000a81548173ffffffffffffffffffffffffffffffffffffffff021916908373ffffffffffffffffffffffffffffffffffffffff1602179055506127396040518060400160405280600b81526020017f6574685f72696e6b65627900000000000000000000000000000000000000000081525061371f565b60019050612991565b600061276173a2998efd205fb9d4b4963afb70778d6354ad3a41611739565b11156128035773a2998efd205fb9d4b4963afb70778d6354ad3a41600160006101000a81548173ffffffffffffffffffffffffffffffffffffffff021916908373ffffffffffffffffffffffffffffffffffffffff1602179055506127fa6040518060400160405280600a81526020017f6574685f676f65726c690000000000000000000000000000000000000000000081525061371f565b60019050612991565b6000612822736f485c8bf6fc43ea212e93bbf8ce046c7f1cb475611739565b111561288657736f485c8bf6fc43ea212e93bbf8ce046c7f1cb475600160006101000a81548173ffffffffffffffffffffffffffffffffffffffff021916908373ffffffffffffffffffffffffffffffffffffffff16021790555060019050612991565b60006128a57320e12a1f859b3feae5fb2a0a32c18f5a65555bbf611739565b1115612909577320e12a1f859b3feae5fb2a0a32c18f5a65555bbf600160006101000a81548173ffffffffffffffffffffffffffffffffffffffff021916908373ffffffffffffffffffffffffffffffffffffffff16021790555060019050612991565b60006129287351efaf4c8b3c9afbd5ab9f4bbc82784ab6ef8faa611739565b111561298c577351efaf4c8b3c9afbd5ab9f4bbc82784ab6ef8faa600160006101000a81548173ffffffffffffffffffffffffffffffffffffffff021916908373ffffffffffffffffffffffffffffffffffffffff16021790555060019050612991565b600090505b90565b60606000828501905080845110156129ab57600080fd5b600086602001905060008460200190505b8688602001018210156129e457818901518082880152506020820191506020810190506129bc565b85935050505095945050505050565b6000806001905082845114612a0757600080fd5b60008090505b83811015612a9757848181518110612a2157fe5b602001015160f81c60f81b7effffffffffffffffffffffffffffffffffffffffffffffffffffffffffffff1916868260208110612a5a57fe5b1a60f81b7effffffffffffffffffffffffffffffffffffffffffffffffffffffffffffff191614612a8a57600091505b8080600101915050612a0d565b50809150509392505050565b6000806000806000606060206040519080825280601f01601f191660200182016040528015612ae15781602001600182028038833980820191505090505b5090506000602089600381518110612af557fe5b602001015160f81c60f81b60f81c60ff16036004019050612b1b89826020856000612994565b9150606060206040519080825280601f01601f191660200182016040528015612b535781602001600182028038833980820191505090505b509050602282019150612b8f8a60208c6001860381518110612b7157fe5b602001015160f81c60f81b60f81c60ff160384016020846000612994565b90506020830151945060208101519350612bac8b601b8787613739565b80975081985050508573ffffffffffffffffffffffffffffffffffffffff16898051906020012060001c73ffffffffffffffffffffffffffffffffffffffff161415612c02576001975050505050505050612c5a565b612c0f8b601c8787613739565b80975081985050508573ffffffffffffffffffffffffffffffffffffffff16898051906020012060001c73ffffffffffffffffffffffffffffffffffffffff16149750505050505050505b9392505050565b60008060606002856001860181518110612c7757fe5b602001015160f81c60f81b60f81c60ff16016040519080825280601f01601f191660200182016040528015612cbb5781602001600182028038833980820191505090505b509050612ccd85858351846000612994565b506060604080519080825280601f01601f191660200182016040528015612d035781602001600182028038833980820191505090505b509050612d168660046040846000612994565b50606060626040519080825280601f01601f191660200182016040528015612d4d5781602001600182028038833980820191505090505b509050600160f81b81600081518110612d6257fe5b60200101907effffffffffffffffffffffffffffffffffffffffffffffffffffffffffffff1916908160001a905350612da387604188036041846001612994565b5060606040518060400160405280602081526020017ffd94fa71bc0ba10d39d464d0d8f465efeef0a2764e3887fcc9df41ded20f505c8152509050612dee8160006020856042612994565b50612e976002836040518082805190602001908083835b60208310612e285780518252602082019150602081019050602083039250612e05565b6001836020036101000a038019825116818451168082178552505050505050905001915050602060405180830381855afa158015612e6a573d6000803e3d6000fd5b5050506040513d6020811015612e7f57600080fd5b81019080805190602001909291905050508585612aa3565b945084612eac57600095505050505050613073565b6060604051806060016040528060408152602001614222604091399050606060426040519080825280601f01601f191660200182016040528015612eff5781602001600182028038833980820191505090505b50905060fe60f81b81600081518110612f1457fe5b60200101907effffffffffffffffffffffffffffffffffffffffffffffffffffffffffffff1916908160001a905350612f538a60036041846001612994565b50606060028b604581518110612f6557fe5b602001015160f81c60f81b60f81c60ff16016040519080825280601f01601f191660200182016040528015612fa95781602001600182028038833980820191505090505b509050612fbc8b60448351846000612994565b506130656002836040518082805190602001908083835b60208310612ff65780518252602082019150602081019050602083039250612fd3565b6001836020036101000a038019825116818451168082178552505050505050905001915050602060405180830381855afa158015613038573d6000803e3d6000fd5b5050506040513d602081101561304d57600080fd5b81019080805190602001909291905050508285612aa3565b975087985050505050505050505b92915050565b60008073ffffffffffffffffffffffffffffffffffffffff16600160009054906101000a900473ffffffffffffffffffffffffffffffffffffffff1673ffffffffffffffffffffffffffffffffffffffff161480613101575060006130ff600160009054906101000a900473ffffffffffffffffffffffffffffffffffffffff16611739565b145b15613112576131106000611744565b505b600160009054906101000a900473ffffffffffffffffffffffffffffffffffffffff1673ffffffffffffffffffffffffffffffffffffffff166338cc48316040518163ffffffff1660e01b8152600401602060405180830381600087803b15801561317c57600080fd5b505af1158015613190573d6000803e3d6000fd5b505050506040513d60208110156131a657600080fd5b810190808051906020019092919050505073ffffffffffffffffffffffffffffffffffffffff166000809054906101000a900473ffffffffffffffffffffffffffffffffffffffff1673ffffffffffffffffffffffffffffffffffffffff16146132ef57600160009054906101000a900473ffffffffffffffffffffffffffffffffffffffff1673ffffffffffffffffffffffffffffffffffffffff166338cc48316040518163ffffffff1660e01b8152600401602060405180830381600087803b15801561327457600080fd5b505af1158015613288573d6000803e3d6000fd5b505050506040513d602081101561329e57600080fd5b81019080805190602001909291905050506000806101000a81548173ffffffffffffffffffffffffffffffffffffffff021916908373ffffffffffffffffffffffffffffffffffffffff1602179055505b6000809054906101000a900473ffffffffffffffffffffffffffffffffffffffff1673ffffffffffffffffffffffffffffffffffffffff1663abaa5f3e6040518163ffffffff1660e01b815260040160206040518083038186803b15801561335657600080fd5b505afa15801561336a573d6000803e3d6000fd5b505050506040513d602081101561338057600080fd5b8101908080519060200190929190505050905090565b60008073ffffffffffffffffffffffffffffffffffffffff16600160009054906101000a900473ffffffffffffffffffffffffffffffffffffffff1673ffffffffffffffffffffffffffffffffffffffff16148061341e5750600061341c600160009054906101000a900473ffffffffffffffffffffffffffffffffffffffff16611739565b145b1561342f5761342d6000611744565b505b600160009054906101000a900473ffffffffffffffffffffffffffffffffffffffff1673ffffffffffffffffffffffffffffffffffffffff166338cc48316040518163ffffffff1660e01b8152600401602060405180830381600087803b15801561349957600080fd5b505af11580156134ad573d6000803e3d6000fd5b505050506040513d60208110156134c357600080fd5b810190808051906020019092919050505073ffffffffffffffffffffffffffffffffffffffff166000809054906101000a900473ffffffffffffffffffffffffffffffffffffffff1673ffffffffffffffffffffffffffffffffffffffff161461360c57600160009054906101000a900473ffffffffffffffffffffffffffffffffffffffff1673ffffffffffffffffffffffffffffffffffffffff166338cc48316040518163ffffffff1660e01b8152600401602060405180830381600087803b15801561359157600080fd5b505af11580156135a5573d6000803e3d6000fd5b505050506040513d60208110156135bb57600080fd5b81019080805190602001909291905050506000806101000a81548173ffffffffffffffffffffffffffffffffffffffff021916908373ffffffffffffffffffffffffffffffffffffffff1602179055505b6060600460405190808252806020026020018201604052801561364357816020015b606081526020019060019003908161362e5790505b5090508360006004811061365357fe5b60200201518160008151811061366557fe5b60200260200101819052508360016004811061367d57fe5b60200201518160018151811061368f57fe5b6020026020010181905250836002600481106136a757fe5b6020020151816002815181106136b957fe5b6020026020010181905250836003600481106136d157fe5b6020020151816003815181106136e357fe5b60200260200101819052506136f985828561377d565b9150509392505050565b8060036000848152602001908152602001600020819055505050565b806002908051906020019061373592919061410f565b5050565b60008060008060405188815287602082015286604082015285606082015260208160808360006001610bb8f192508051915050818193509350505094509492505050565b60008073ffffffffffffffffffffffffffffffffffffffff16600160009054906101000a900473ffffffffffffffffffffffffffffffffffffffff1673ffffffffffffffffffffffffffffffffffffffff16148061380557506000613803600160009054906101000a900473ffffffffffffffffffffffffffffffffffffffff16611739565b145b15613816576138146000611744565b505b600160009054906101000a900473ffffffffffffffffffffffffffffffffffffffff1673ffffffffffffffffffffffffffffffffffffffff166338cc48316040518163ffffffff1660e01b8152600401602060405180830381600087803b15801561388057600080fd5b505af1158015613894573d6000803e3d6000fd5b505050506040513d60208110156138aa57600080fd5b810190808051906020019092919050505073ffffffffffffffffffffffffffffffffffffffff166000809054906101000a900473ffffffffffffffffffffffffffffffffffffffff1673ffffffffffffffffffffffffffffffffffffffff16146139f357600160009054906101000a900473ffffffffffffffffffffffffffffffffffffffff1673ffffffffffffffffffffffffffffffffffffffff166338cc48316040518163ffffffff1660e01b8152600401602060405180830381600087803b15801561397857600080fd5b505af115801561398c573d6000803e3d6000fd5b505050506040513d60208110156139a257600080fd5b81019080805190602001909291905050506000806101000a81548173ffffffffffffffffffffffffffffffffffffffff021916908373ffffffffffffffffffffffffffffffffffffffff1602179055505b60008060009054906101000a900473ffffffffffffffffffffffffffffffffffffffff1673ffffffffffffffffffffffffffffffffffffffff16632ef3accc86856040518363ffffffff1660e01b81526004018080602001838152602001828103825284818151815260200191508051906020019080838360005b83811015613a89578082015181840152602081019050613a6e565b50505050905090810190601f168015613ab65780820380516001836020036101000a031916815260200191505b509350505050602060405180830381600087803b158015613ad657600080fd5b505af1158015613aea573d6000803e3d6000fd5b505050506040513d6020811015613b0057600080fd5b81019080805190602001909291905050509050823a02670de0b6b3a764000001811115613b33576000801b915050613cd8565b6060613b3e85613cdf565b90506000809054906101000a900473ffffffffffffffffffffffffffffffffffffffff1673ffffffffffffffffffffffffffffffffffffffff1663c55c1cb68360008985896040518663ffffffff1660e01b8152600401808581526020018060200180602001848152602001838103835286818151815260200191508051906020019080838360005b83811015613be2578082015181840152602081019050613bc7565b50505050905090810190601f168015613c0f5780820380516001836020036101000a031916815260200191505b50838103825285818151815260200191508051906020019080838360005b83811015613c48578082015181840152602081019050613c2d565b50505050905090810190601f168015613c755780820380516001836020036101000a031916815260200191505b5096505050505050506020604051808303818588803b158015613c9757600080fd5b505af1158015613cab573d6000803e3d6000fd5b50505050506040513d6020811015613cc257600080fd5b8101908080519060200190929190505050925050505b9392505050565b6060613ce9613d5f565b613cf161418f565b613cfd81610400613d6b565b613d0681613db5565b60008090505b8351811015613d4857613d3b848281518110613d2457fe5b602002602001015183613dc390919063ffffffff16565b8080600101915050613d0c565b50613d5281613de8565b8060000151915050919050565b60405180590338823950565b6000819050600060208281613d7c57fe5b0614613d955760208181613d8c57fe5b06602003810190505b808360200181815250506040518084526000815281810160405250505050565b613dc0816004613df6565b50565b613dd08260028351613e17565b613de38183613f5790919063ffffffff16565b505050565b613df3816007613df6565b50565b613e13601f60058360ff16901b178361400290919063ffffffff16565b5050565b60178111613e4357613e3e8160058460ff16901b60ff16178461400290919063ffffffff16565b613f52565b60ff8111613e8457613e68601860058460ff16901b178461400290919063ffffffff16565b613e7e816001856140429092919063ffffffff16565b50613f51565b61ffff8111613ec657613eaa601960058460ff16901b178461400290919063ffffffff16565b613ec0816002856140429092919063ffffffff16565b50613f50565b63ffffffff8111613f0a57613eee601a60058460ff16901b178461400290919063ffffffff16565b613f04816004856140429092919063ffffffff16565b50613f4f565b67ffffffffffffffff8111613f4e57613f36601b60058460ff16901b178461400290919063ffffffff16565b613f4c816008856140429092919063ffffffff16565b505b5b5b5b5b505050565b613f5f61418f565b82602001518360000151518351011115613f8f57613f8e836002613f88866020015186516140a9565b026140c5565b5b60008060008451905085518051602081830101945086518101825260208701935050505b60208110613fd65781518352602083019250602082019150602081039050613fb3565b60006001826020036101000a039050801983511681855116818117865250508694505050505092915050565b81602001516001836000015151011115614028576140278260028460200151026140c5565b5b815180516020818301018381536001820183525050505050565b61404a61418f565b836020015184600001515183011115614078576140778460026140718760200151866140a9565b026140c5565b5b60006001836101000a0390508451805184818301018684198251161781528582018352505050849150509392505050565b6000818311156140bb578290506140bf565b8190505b92915050565b6060826000015190506140d88383613d6b565b6140e28382613f57565b50505050565b60405180608001604052806004905b60608152602001906001900390816140f75790505090565b828054600181600116156101000203166002900490600052602060002090601f016020900481019282601f1061415057805160ff191683800117855561417e565b8280016001018555821561417e579182015b8281111561417d578251825591602001919060010190614162565b5b50905061418b91906141a9565b5090565b604051806040016040528060608152602001600081525090565b6141cb91905b808211156141c75760008160009055506001016141af565b5090565b9056fe436f6e747261637420686173206e6f7420656e6f7567682066756e647320746f20706572666f726d207468697320626574746869732061646472657373207374696c6c2068617320616e206f70656e206265747fb956469c5c9b89840d55b43537e66a98dd4811ea0a27224272c2e5622911e8537a2f8e86a46baec82864e98dd01e9ccc2f8bc5dfc9cbe5a91a290498dd96e454686520706172616d65746572205f63686f696365206d7573742062652030206f72203150726f7661626c65207175657279207761732073656e742c207374616e64696e6720627920666f722074686520616e737765722e2e2e546869732061646472657373207374696c6c2068617320616e206f70656e20626574a265627a7a72315820fd1d18ffea84c525437ff8807ad116df4ba36d2bcbac58a750ac693684929c2564736f6c634300050c0032",
  "source": "// // SPDX-License-Identifier: MIT\n// pragma solidity >=0.4.22 <0.9.0;\npragma solidity 0.5.12;\n\nimport \"./api/provableAPI_0.5.sol\";\n\ncontract CoinFlip is usingProvable {\n    uint256 public balance;\n    uint256 public minimumBetNumber;\n\n    uint256 constant NUM_RANDOM_BYTES_REQUESTED = 1;\n    uint256 public latetstNumber;\n\n    struct Player {\n        uint256 balance;\n        uint256 betAmount;\n        uint256 betChoice;\n        bool isWaiting;\n    }\n\n    mapping(address => Player) public betters; //to check who's the player\n    mapping(bytes32 => address) public pendingBets; //to check who's the sender of a pending bet\n\n    event ClosedBet(\n        bytes32 betId,\n        address player,\n        uint256 choice,\n        bool victory,\n        uint256 amount\n    );\n\n    event WithdrawnFundsFromPlayer(\n        address player,\n        uint256 amount,\n        uint256 contractBalance\n    );\n\n    event OccuredDeposit(address, uint256);\n\n    event LogNewProvableQuery(string description, address sender);\n\n    event generateRandomNumber(uint256 randomNumber);\n\n    modifier costsAtLeast {\n        require(msg.value >= minimumBetNumber, \"Not enough amount\");\n        _;\n    }\n\n    constructor() public payable {\n        provable_setProof(proofType_Ledger);\n        balance = msg.value;\n        minimumBetNumber = 0.01 ether;\n    }\n\n    function bet(uint256 _choice) public payable costsAtLeast {\n        require(\n            msg.value <= balance,\n            \"Contract has not enough funds to perform this bet\"\n        );\n        require(\n            betters[msg.sender].isWaiting == false,\n            \"This address still has an open bet\"\n        );\n        require(_choice <= 1, \"The parameter _choice must be 0 or 1\");\n\n        betters[msg.sender].isWaiting = true;\n        betters[msg.sender].betAmount = msg.value;\n        betters[msg.sender].betChoice = _choice;\n\n        update();\n    }\n\n    function update() internal {\n        uint256 QUERY_EXECUTION_DELAY = 0;\n        uint256 GAS_FOR_CALLBACK = 200000;\n\n        //production mode\n        bytes32 queryId =\n            provable_newRandomDSQuery(\n                QUERY_EXECUTION_DELAY,\n                NUM_RANDOM_BYTES_REQUESTED,\n                GAS_FOR_CALLBACK\n            );\n\n        pendingBets[queryId] = msg.sender;\n\n        emit LogNewProvableQuery(\n            \"Provable query was sent, standing by for the answer...\",\n            msg.sender\n        );\n    }\n\n    function __callback(\n        bytes32 _myid,\n        string memory _result,\n        bytes memory _proof\n    ) public {\n        require(msg.sender == provable_cbAddress());\n        require(\n            provable_randomDS_proofVerify__returnCode(\n                _myid,\n                _result,\n                _proof\n            ) == 0,\n            \"Call not coming from the oracle\"\n        );\n\n        uint256 randomNumber = uint256(keccak256(abi.encodePacked(_result))) % 2;\n\n        closedBet(_myid, randomNumber);\n\n        emit generateRandomNumber(randomNumber);\n    }\n\n    function closedBet(bytes32 _id, uint256 _result) internal returns (bool) {\n        address player = pendingBets[_id];\n        bool win = false;\n\n        if(betters[player].betChoice == _result) {\n            win = true;\n            betters[player].balance += betters[player].betAmount * 2;\n            balance -= betters[player].betAmount;\n        } else {\n            balance += betters[player].betAmount;\n        }\n\n        emit ClosedBet(_id, player, betters[player].betChoice, win, betters[player].betAmount);\n\n        betters[player].isWaiting = false;\n        delete pendingBets[_id];\n        \n        return win;\n    }\n\n    function getPlayerBalance(address _player) public view returns (uint256) {\n        return betters[_player].balance;\n    }\n\n    function deposit() public payable returns (uint256) {\n        balance += msg.value;\n\n        emit OccuredDeposit(msg.sender, msg.value);\n\n        return msg.value;\n    }\n\n    function withdrawFunds() public {\n        require(msg.sender != address(0), \"not exist address\");\n        require(betters[msg.sender].balance > 0, \"Not enough funds to withdraw\");\n        require(betters[msg.sender].isWaiting == false, \"this address still has an open bet\");\n\n        uint256 amount = betters[msg.sender].balance;\n        msg.sender.transfer(amount);\n\n        delete (betters[msg.sender]);\n\n        emit WithdrawnFundsFromPlayer(msg.sender, amount, balance);\n    }\n}\n",
  "sourcePath": "/Users/aoikurokawa/Documents/Blockchain/Ethereum/eth_coinflip/eth_CoinFlip/contracts/CoinFlip.sol",
  "compiler": {
    "name": "solc",
    "version": "0.5.12+commit.7709ece9.Emscripten.clang"
  },
  "schemaVersion": "3.3.4",
  "updatedAt": "2021-02-27T14:45:59.970Z",
  "networkType": "ethereum",
  "devdoc": {
    "methods": {
      "__callback(bytes32,string)": {
        "details": "The following `__callback` functions are just placeholders ideally     meant to be defined in child contract when proofs are used.     The function bodies simply silence compiler warnings."
      }
    }
  },
  "userdoc": {
    "methods": {}
  }
}